{
  "_format": "hh-sol-artifact-1",
  "contractName": "MerkleClaimTaskNFT721",
  "sourceName": "contracts/MerkleClaimTaskNFT721.sol",
  "abi": [
    {
      "inputs": [],
      "stateMutability": "nonpayable",
      "type": "constructor"
    },
    {
      "anonymous": false,
      "inputs": [
        {
          "indexed": true,
          "internalType": "address",
          "name": "owner",
          "type": "address"
        },
        {
          "indexed": true,
          "internalType": "address",
          "name": "approved",
          "type": "address"
        },
        {
          "indexed": true,
          "internalType": "uint256",
          "name": "tokenId",
          "type": "uint256"
        }
      ],
      "name": "Approval",
      "type": "event"
    },
    {
      "anonymous": false,
      "inputs": [
        {
          "indexed": true,
          "internalType": "address",
          "name": "owner",
          "type": "address"
        },
        {
          "indexed": true,
          "internalType": "address",
          "name": "operator",
          "type": "address"
        },
        {
          "indexed": false,
          "internalType": "bool",
          "name": "approved",
          "type": "bool"
        }
      ],
      "name": "ApprovalForAll",
      "type": "event"
    },
    {
      "anonymous": false,
      "inputs": [
        {
          "indexed": false,
          "internalType": "uint256",
          "name": "id",
          "type": "uint256"
        },
        {
          "indexed": false,
          "internalType": "string",
          "name": "info",
          "type": "string"
        },
        {
          "indexed": false,
          "internalType": "bytes32",
          "name": "merkleRoot",
          "type": "bytes32"
        }
      ],
      "name": "CreateDrop",
      "type": "event"
    },
    {
      "anonymous": false,
      "inputs": [
        {
          "indexed": true,
          "internalType": "address",
          "name": "previousOwner",
          "type": "address"
        },
        {
          "indexed": true,
          "internalType": "address",
          "name": "newOwner",
          "type": "address"
        }
      ],
      "name": "OwnershipTransferred",
      "type": "event"
    },
    {
      "anonymous": false,
      "inputs": [
        {
          "indexed": false,
          "internalType": "uint256",
          "name": "id",
          "type": "uint256"
        },
        {
          "indexed": false,
          "internalType": "string",
          "name": "info",
          "type": "string"
        }
      ],
      "name": "TaskUpgrade",
      "type": "event"
    },
    {
      "anonymous": false,
      "inputs": [
        {
          "indexed": true,
          "internalType": "address",
          "name": "from",
          "type": "address"
        },
        {
          "indexed": true,
          "internalType": "address",
          "name": "to",
          "type": "address"
        },
        {
          "indexed": true,
          "internalType": "uint256",
          "name": "tokenId",
          "type": "uint256"
        }
      ],
      "name": "Transfer",
      "type": "event"
    },
    {
      "inputs": [
        {
          "internalType": "address",
          "name": "to",
          "type": "address"
        },
        {
          "internalType": "uint256",
          "name": "tokenId",
          "type": "uint256"
        }
      ],
      "name": "approve",
      "outputs": [],
      "stateMutability": "nonpayable",
      "type": "function"
    },
    {
      "inputs": [
        {
          "internalType": "address",
          "name": "owner",
          "type": "address"
        }
      ],
      "name": "balanceOf",
      "outputs": [
        {
          "internalType": "uint256",
          "name": "",
          "type": "uint256"
        }
      ],
      "stateMutability": "view",
      "type": "function"
    },
    {
      "inputs": [],
      "name": "baseURI",
      "outputs": [
        {
          "internalType": "string",
          "name": "",
          "type": "string"
        }
      ],
      "stateMutability": "view",
      "type": "function"
    },
    {
      "inputs": [
        {
          "internalType": "uint256",
          "name": "dropId",
          "type": "uint256"
        }
      ],
      "name": "cancelDrop",
      "outputs": [],
      "stateMutability": "nonpayable",
      "type": "function"
    },
    {
      "inputs": [
        {
          "internalType": "uint256",
          "name": "dropId",
          "type": "uint256"
        },
        {
          "internalType": "uint256",
          "name": "tokenId",
          "type": "uint256"
        },
        {
          "internalType": "bytes32[]",
          "name": "proof",
          "type": "bytes32[]"
        }
      ],
      "name": "claim",
      "outputs": [],
      "stateMutability": "nonpayable",
      "type": "function"
    },
    {
      "inputs": [
        {
          "internalType": "string",
          "name": "info",
          "type": "string"
        },
        {
          "internalType": "bytes32",
          "name": "merkleRoot",
          "type": "bytes32"
        }
      ],
      "name": "createDrop",
      "outputs": [],
      "stateMutability": "nonpayable",
      "type": "function"
    },
    {
      "inputs": [],
      "name": "dropslength",
      "outputs": [
        {
          "internalType": "uint256",
          "name": "",
          "type": "uint256"
        }
      ],
      "stateMutability": "view",
      "type": "function"
    },
    {
      "inputs": [
        {
          "internalType": "uint256",
          "name": "tokenId",
          "type": "uint256"
        }
      ],
      "name": "getApproved",
      "outputs": [
        {
          "internalType": "address",
          "name": "",
          "type": "address"
        }
      ],
      "stateMutability": "view",
      "type": "function"
    },
    {
      "inputs": [
        {
          "internalType": "uint256",
          "name": "tokenId",
          "type": "uint256"
        }
      ],
      "name": "getTaskUpgrade",
      "outputs": [
        {
          "components": [
            {
              "internalType": "uint256",
              "name": "dropId",
              "type": "uint256"
            },
            {
              "internalType": "uint256",
              "name": "tokenId",
              "type": "uint256"
            },
            {
              "internalType": "string",
              "name": "info",
              "type": "string"
            },
            {
              "internalType": "uint256",
              "name": "skills",
              "type": "uint256"
            }
          ],
          "internalType": "struct MerkleClaimTaskNFT721.Task",
          "name": "",
          "type": "tuple"
        }
      ],
      "stateMutability": "view",
      "type": "function"
    },
    {
      "inputs": [
        {
          "internalType": "uint256",
          "name": "",
          "type": "uint256"
        }
      ],
      "name": "idToDrop",
      "outputs": [
        {
          "internalType": "uint256",
          "name": "id",
          "type": "uint256"
        },
        {
          "internalType": "string",
          "name": "info",
          "type": "string"
        },
        {
          "internalType": "bytes32",
          "name": "merkleRoot",
          "type": "bytes32"
        },
        {
          "internalType": "uint256",
          "name": "claimCount",
          "type": "uint256"
        },
        {
          "internalType": "bool",
          "name": "isOver",
          "type": "bool"
        }
      ],
      "stateMutability": "view",
      "type": "function"
    },
    {
      "inputs": [
        {
          "internalType": "address",
          "name": "owner",
          "type": "address"
        },
        {
          "internalType": "address",
          "name": "operator",
          "type": "address"
        }
      ],
      "name": "isApprovedForAll",
      "outputs": [
        {
          "internalType": "bool",
          "name": "",
          "type": "bool"
        }
      ],
      "stateMutability": "view",
      "type": "function"
    },
    {
      "inputs": [],
      "name": "name",
      "outputs": [
        {
          "internalType": "string",
          "name": "",
          "type": "string"
        }
      ],
      "stateMutability": "view",
      "type": "function"
    },
    {
      "inputs": [],
      "name": "owner",
      "outputs": [
        {
          "internalType": "address",
          "name": "",
          "type": "address"
        }
      ],
      "stateMutability": "view",
      "type": "function"
    },
    {
      "inputs": [
        {
          "internalType": "uint256",
          "name": "tokenId",
          "type": "uint256"
        }
      ],
      "name": "ownerOf",
      "outputs": [
        {
          "internalType": "address",
          "name": "",
          "type": "address"
        }
      ],
      "stateMutability": "view",
      "type": "function"
    },
    {
      "inputs": [],
      "name": "renounceOwnership",
      "outputs": [],
      "stateMutability": "nonpayable",
      "type": "function"
    },
    {
      "inputs": [
        {
          "internalType": "address",
          "name": "to",
          "type": "address"
        },
        {
          "internalType": "uint256",
          "name": "tokenId",
          "type": "uint256"
        }
      ],
      "name": "safeMint",
      "outputs": [],
      "stateMutability": "nonpayable",
      "type": "function"
    },
    {
      "inputs": [
        {
          "internalType": "address",
          "name": "from",
          "type": "address"
        },
        {
          "internalType": "address",
          "name": "to",
          "type": "address"
        },
        {
          "internalType": "uint256",
          "name": "tokenId",
          "type": "uint256"
        }
      ],
      "name": "safeTransferFrom",
      "outputs": [],
      "stateMutability": "nonpayable",
      "type": "function"
    },
    {
      "inputs": [
        {
          "internalType": "address",
          "name": "from",
          "type": "address"
        },
        {
          "internalType": "address",
          "name": "to",
          "type": "address"
        },
        {
          "internalType": "uint256",
          "name": "tokenId",
          "type": "uint256"
        },
        {
          "internalType": "bytes",
          "name": "_data",
          "type": "bytes"
        }
      ],
      "name": "safeTransferFrom",
      "outputs": [],
      "stateMutability": "nonpayable",
      "type": "function"
    },
    {
      "inputs": [
        {
          "internalType": "address",
          "name": "operator",
          "type": "address"
        },
        {
          "internalType": "bool",
          "name": "approved",
          "type": "bool"
        }
      ],
      "name": "setApprovalForAll",
      "outputs": [],
      "stateMutability": "nonpayable",
      "type": "function"
    },
    {
      "inputs": [
        {
          "internalType": "string",
          "name": "newValue",
          "type": "string"
        }
      ],
      "name": "setBaseURI",
      "outputs": [],
      "stateMutability": "nonpayable",
      "type": "function"
    },
    {
      "inputs": [
        {
          "internalType": "bytes4",
          "name": "interfaceId",
          "type": "bytes4"
        }
      ],
      "name": "supportsInterface",
      "outputs": [
        {
          "internalType": "bool",
          "name": "",
          "type": "bool"
        }
      ],
      "stateMutability": "view",
      "type": "function"
    },
    {
      "inputs": [],
      "name": "symbol",
      "outputs": [
        {
          "internalType": "string",
          "name": "",
          "type": "string"
        }
      ],
      "stateMutability": "view",
      "type": "function"
    },
    {
      "inputs": [
        {
          "internalType": "uint256",
          "name": "dropId",
          "type": "uint256"
        },
        {
          "internalType": "uint256",
          "name": "tokenId",
          "type": "uint256"
        },
        {
          "internalType": "bytes32[]",
          "name": "proof",
          "type": "bytes32[]"
        },
        {
          "internalType": "string",
          "name": "info",
          "type": "string"
        }
      ],
      "name": "taskUpgrade",
      "outputs": [],
      "stateMutability": "nonpayable",
      "type": "function"
    },
    {
      "inputs": [
        {
          "internalType": "uint256",
          "name": "",
          "type": "uint256"
        }
      ],
      "name": "tokenIdTaskUpgrade",
      "outputs": [
        {
          "internalType": "uint256",
          "name": "dropId",
          "type": "uint256"
        },
        {
          "internalType": "uint256",
          "name": "tokenId",
          "type": "uint256"
        },
        {
          "internalType": "string",
          "name": "info",
          "type": "string"
        },
        {
          "internalType": "uint256",
          "name": "skills",
          "type": "uint256"
        }
      ],
      "stateMutability": "view",
      "type": "function"
    },
    {
      "inputs": [
        {
          "internalType": "uint256",
          "name": "tokenId",
          "type": "uint256"
        }
      ],
      "name": "tokenURI",
      "outputs": [
        {
          "internalType": "string",
          "name": "",
          "type": "string"
        }
      ],
      "stateMutability": "view",
      "type": "function"
    },
    {
      "inputs": [
        {
          "internalType": "address",
          "name": "from",
          "type": "address"
        },
        {
          "internalType": "address",
          "name": "to",
          "type": "address"
        },
        {
          "internalType": "uint256",
          "name": "tokenId",
          "type": "uint256"
        }
      ],
      "name": "transferFrom",
      "outputs": [],
      "stateMutability": "nonpayable",
      "type": "function"
    },
    {
      "inputs": [
        {
          "internalType": "address",
          "name": "newOwner",
          "type": "address"
        }
      ],
      "name": "transferOwnership",
      "outputs": [],
      "stateMutability": "nonpayable",
      "type": "function"
    }
  ],
  "bytecode": "0x608060405260006008553480156200001657600080fd5b506040518060400160405280601581526020017f4d65726b6c65436c61696d5461736b4e465437323100000000000000000000008152506040518060400160405280600681526020017f4e4654373231000000000000000000000000000000000000000000000000000081525081600090805190602001906200009b929190620001ab565b508060019080519060200190620000b4929190620001ab565b505050620000d7620000cb620000dd60201b60201c565b620000e560201b60201c565b620002c0565b600033905090565b6000600660009054906101000a900473ffffffffffffffffffffffffffffffffffffffff16905081600660006101000a81548173ffffffffffffffffffffffffffffffffffffffff021916908373ffffffffffffffffffffffffffffffffffffffff1602179055508173ffffffffffffffffffffffffffffffffffffffff168173ffffffffffffffffffffffffffffffffffffffff167f8be0079c531659141344cd1fd0a4f28419497f9722a3daafe3b4186f6b6457e060405160405180910390a35050565b828054620001b9906200025b565b90600052602060002090601f016020900481019282620001dd576000855562000229565b82601f10620001f857805160ff191683800117855562000229565b8280016001018555821562000229579182015b82811115620002285782518255916020019190600101906200020b565b5b5090506200023891906200023c565b5090565b5b80821115620002575760008160009055506001016200023d565b5090565b600060028204905060018216806200027457607f821691505b602082108114156200028b576200028a62000291565b5b50919050565b7f4e487b7100000000000000000000000000000000000000000000000000000000600052602260045260246000fd5b6142da80620002d06000396000f3fe608060405234801561001057600080fd5b50600436106101a95760003560e01c8063715018a6116100f9578063b88d4fde11610097578063e271068711610071578063e2710687146104b9578063e985e9c5146104d5578063f2fde38b14610505578063f4f6944314610521576101a9565b8063b88d4fde14610451578063c87b56dd1461046d578063d45517381461049d576101a9565b806395d89b41116100d357806395d89b41146103df578063a1448194146103fd578063a22cb46514610419578063ae0b51df14610435576101a9565b8063715018a6146103845780638da5cb5b1461038e5780638e6f78bc146103ac576101a9565b806323b872dd1161016657806355f804b31161014057806355f804b3146102ea5780636352211e146103065780636c0360eb1461033657806370a0823114610354576101a9565b806323b872dd14610294578063385b694c146102b057806342842e0e146102ce576101a9565b806301ffc9a7146101ae57806306fdde03146101de578063081812fc146101fc578063095ea7b31461022c5780630aae997b1461024857806315e9701714610264575b600080fd5b6101c860048036038101906101c39190612df7565b610555565b6040516101d59190613509565b60405180910390f35b6101e6610637565b6040516101f39190613524565b60405180910390f35b61021660048036038101906102119190612ede565b6106c9565b60405161022391906134a2565b60405180910390f35b61024660048036038101906102419190612dbb565b61074e565b005b610262600480360381019061025d9190612f6e565b610866565b005b61027e60048036038101906102799190612ede565b610aff565b60405161028b91906137a6565b60405180910390f35b6102ae60048036038101906102a99190612cb5565b610bdc565b005b6102b8610c3c565b6040516102c591906137c8565b60405180910390f35b6102e860048036038101906102e39190612cb5565b610c42565b005b61030460048036038101906102ff9190612e49565b610c62565b005b610320600480360381019061031b9190612ede565b610cf8565b60405161032d91906134a2565b60405180910390f35b61033e610daa565b60405161034b9190613524565b60405180910390f35b61036e60048036038101906103699190612c50565b610e38565b60405161037b91906137c8565b60405180910390f35b61038c610ef0565b005b610396610f78565b6040516103a391906134a2565b60405180910390f35b6103c660048036038101906103c19190612ede565b610fa2565b6040516103d694939291906138ab565b60405180910390f35b6103e761105a565b6040516103f49190613524565b60405180910390f35b61041760048036038101906104129190612dbb565b6110ec565b005b610433600480360381019061042e9190612d7f565b611186565b005b61044f600480360381019061044a9190612f07565b61119c565b005b61046b60048036038101906104669190612d04565b611463565b005b61048760048036038101906104829190612ede565b6114c5565b6040516104949190613524565b60405180910390f35b6104b760048036038101906104b29190612e8a565b61156c565b005b6104d360048036038101906104ce9190612ede565b6116dd565b005b6104ef60048036038101906104ea9190612c79565b6118c0565b6040516104fc9190613509565b60405180910390f35b61051f600480360381019061051a9190612c50565b611954565b005b61053b60048036038101906105369190612ede565b611a4c565b60405161054c959493929190613851565b60405180910390f35b60007f80ac58cd000000000000000000000000000000000000000000000000000000007bffffffffffffffffffffffffffffffffffffffffffffffffffffffff1916827bffffffffffffffffffffffffffffffffffffffffffffffffffffffff1916148061062057507f5b5e139f000000000000000000000000000000000000000000000000000000007bffffffffffffffffffffffffffffffffffffffffffffffffffffffff1916827bffffffffffffffffffffffffffffffffffffffffffffffffffffffff1916145b80610630575061062f82611b17565b5b9050919050565b60606000805461064690613b79565b80601f016020809104026020016040519081016040528092919081815260200182805461067290613b79565b80156106bf5780601f10610694576101008083540402835291602001916106bf565b820191906000526020600020905b8154815290600101906020018083116106a257829003601f168201915b5050505050905090565b60006106d482611b81565b610713576040517f08c379a000000000000000000000000000000000000000000000000000000000815260040161070a906136c6565b60405180910390fd5b6004600083815260200190815260200160002060009054906101000a900473ffffffffffffffffffffffffffffffffffffffff169050919050565b600061075982610cf8565b90508073ffffffffffffffffffffffffffffffffffffffff168373ffffffffffffffffffffffffffffffffffffffff1614156107ca576040517f08c379a00000000000000000000000000000000000000000000000000000000081526004016107c190613746565b60405180910390fd5b8073ffffffffffffffffffffffffffffffffffffffff166107e9611bed565b73ffffffffffffffffffffffffffffffffffffffff161480610818575061081781610812611bed565b6118c0565b5b610857576040517f08c379a000000000000000000000000000000000000000000000000000000000815260040161084e90613646565b60405180910390fd5b6108618383611bf5565b505050565b6000600960008681526020019081526020016000206040518060a0016040529081600082015481526020016001820180546108a090613b79565b80601f01602080910402602001604051908101604052809291908181526020018280546108cc90613b79565b80156109195780601f106108ee57610100808354040283529160200191610919565b820191906000526020600020905b8154815290600101906020018083116108fc57829003601f168201915b5050505050815260200160028201548152602001600382015481526020016004820160009054906101000a900460ff1615151515815250509050600081600001511161099a576040517f08c379a0000000000000000000000000000000000000000000000000000000008152600401610991906135c6565b60405180910390fd5b8060800151156109df576040517f08c379a00000000000000000000000000000000000000000000000000000000081526004016109d690613766565b60405180910390fd5b60006109e9611bed565b856040516020016109fb929190613452565b6040516020818303038152906040528051906020012090506000610a2485846040015184611cae565b905080610a66576040517f08c379a0000000000000000000000000000000000000000000000000000000008152600401610a5d90613726565b60405180910390fd5b83600a60008881526020019081526020016000206002019080519060200190610a909291906129a1565b50600a60008781526020019081526020016000206003016000815480929190610ab890613bdc565b91905055507f629d6c057930d818e3fc0da2f1ec279849fed2c2b795c2785eb96ff47ce034448685604051610aee9291906137e3565b60405180910390a150505050505050565b610b07612a27565b600a60008381526020019081526020016000206040518060800160405290816000820154815260200160018201548152602001600282018054610b4990613b79565b80601f0160208091040260200160405190810160405280929190818152602001828054610b7590613b79565b8015610bc25780601f10610b9757610100808354040283529160200191610bc2565b820191906000526020600020905b815481529060010190602001808311610ba557829003601f168201915b505050505081526020016003820154815250509050919050565b610bed610be7611bed565b82611cc5565b610c2c576040517f08c379a0000000000000000000000000000000000000000000000000000000008152600401610c2390613786565b60405180910390fd5b610c37838383611da3565b505050565b60085481565b610c5d83838360405180602001604052806000815250611463565b505050565b610c6a611bed565b73ffffffffffffffffffffffffffffffffffffffff16610c88610f78565b73ffffffffffffffffffffffffffffffffffffffff1614610cde576040517f08c379a0000000000000000000000000000000000000000000000000000000008152600401610cd5906136e6565b60405180910390fd5b8060079080519060200190610cf49291906129a1565b5050565b6000806002600084815260200190815260200160002060009054906101000a900473ffffffffffffffffffffffffffffffffffffffff169050600073ffffffffffffffffffffffffffffffffffffffff168173ffffffffffffffffffffffffffffffffffffffff161415610da1576040517f08c379a0000000000000000000000000000000000000000000000000000000008152600401610d9890613686565b60405180910390fd5b80915050919050565b60078054610db790613b79565b80601f0160208091040260200160405190810160405280929190818152602001828054610de390613b79565b8015610e305780601f10610e0557610100808354040283529160200191610e30565b820191906000526020600020905b815481529060010190602001808311610e1357829003601f168201915b505050505081565b60008073ffffffffffffffffffffffffffffffffffffffff168273ffffffffffffffffffffffffffffffffffffffff161415610ea9576040517f08c379a0000000000000000000000000000000000000000000000000000000008152600401610ea090613666565b60405180910390fd5b600360008373ffffffffffffffffffffffffffffffffffffffff1673ffffffffffffffffffffffffffffffffffffffff168152602001908152602001600020549050919050565b610ef8611bed565b73ffffffffffffffffffffffffffffffffffffffff16610f16610f78565b73ffffffffffffffffffffffffffffffffffffffff1614610f6c576040517f08c379a0000000000000000000000000000000000000000000000000000000008152600401610f63906136e6565b60405180910390fd5b610f76600061200a565b565b6000600660009054906101000a900473ffffffffffffffffffffffffffffffffffffffff16905090565b600a602052806000526040600020600091509050806000015490806001015490806002018054610fd190613b79565b80601f0160208091040260200160405190810160405280929190818152602001828054610ffd90613b79565b801561104a5780601f1061101f5761010080835404028352916020019161104a565b820191906000526020600020905b81548152906001019060200180831161102d57829003601f168201915b5050505050908060030154905084565b60606001805461106990613b79565b80601f016020809104026020016040519081016040528092919081815260200182805461109590613b79565b80156110e25780601f106110b7576101008083540402835291602001916110e2565b820191906000526020600020905b8154815290600101906020018083116110c557829003601f168201915b5050505050905090565b6110f4611bed565b73ffffffffffffffffffffffffffffffffffffffff16611112610f78565b73ffffffffffffffffffffffffffffffffffffffff1614611168576040517f08c379a000000000000000000000000000000000000000000000000000000000815260040161115f906136e6565b60405180910390fd5b6111828282604051806020016040528060008152506120d0565b5050565b611198611191611bed565b838361212b565b5050565b6000600960008581526020019081526020016000206040518060a0016040529081600082015481526020016001820180546111d690613b79565b80601f016020809104026020016040519081016040528092919081815260200182805461120290613b79565b801561124f5780601f106112245761010080835404028352916020019161124f565b820191906000526020600020905b81548152906001019060200180831161123257829003601f168201915b5050505050815260200160028201548152602001600382015481526020016004820160009054906101000a900460ff161515151581525050905060008160000151116112d0576040517f08c379a00000000000000000000000000000000000000000000000000000000081526004016112c7906135c6565b60405180910390fd5b806080015115611315576040517f08c379a000000000000000000000000000000000000000000000000000000000815260040161130c90613766565b60405180910390fd5b600061131f611bed565b84604051602001611331929190613452565b604051602081830303815290604052805190602001209050600061135a84846040015184611cae565b90508061139c576040517f08c379a000000000000000000000000000000000000000000000000000000000815260040161139390613726565b60405180910390fd5b6113ad6113a7611bed565b86612298565b6009600087815260200190815260200160002060030160008154809291906113d490613bdc565b919050555060405180608001604052808781526020018681526020016040518060200160405280600081525081526020016001815250600a60008781526020019081526020016000206000820151816000015560208201518160010155604082015181600201908051906020019061144d9291906129a1565b5060608201518160030155905050505050505050565b61147461146e611bed565b83611cc5565b6114b3576040517f08c379a00000000000000000000000000000000000000000000000000000000081526004016114aa90613786565b60405180910390fd5b6114bf848484846122b6565b50505050565b60606114d082611b81565b61150f576040517f08c379a000000000000000000000000000000000000000000000000000000000815260040161150690613706565b60405180910390fd5b6000611519612312565b905060008151116115395760405180602001604052806000815250611564565b80611543846123a4565b60405160200161155492919061347e565b6040516020818303038152906040525b915050919050565b611574611bed565b73ffffffffffffffffffffffffffffffffffffffff16611592610f78565b73ffffffffffffffffffffffffffffffffffffffff16146115e8576040517f08c379a00000000000000000000000000000000000000000000000000000000081526004016115df906136e6565b60405180910390fd5b60006008600081546115f990613bdc565b91905081905590506040518060a001604052808281526020018481526020018381526020016000815260200160001515815250600960008381526020019081526020016000206000820151816000015560208201518160010190805190602001906116659291906129a1565b50604082015181600201556060820151816003015560808201518160040160006101000a81548160ff0219169083151502179055509050507fbac989a55da09cc62d952d52605ac894e8b70f48b59302b687302c06d4f490d38184846040516116d093929190613813565b60405180910390a1505050565b6116e5611bed565b73ffffffffffffffffffffffffffffffffffffffff16611703610f78565b73ffffffffffffffffffffffffffffffffffffffff1614611759576040517f08c379a0000000000000000000000000000000000000000000000000000000008152600401611750906136e6565b60405180910390fd5b6000600960008381526020019081526020016000206040518060a00160405290816000820154815260200160018201805461179390613b79565b80601f01602080910402602001604051908101604052809291908181526020018280546117bf90613b79565b801561180c5780601f106117e15761010080835404028352916020019161180c565b820191906000526020600020905b8154815290600101906020018083116117ef57829003601f168201915b5050505050815260200160028201548152602001600382015481526020016004820160009054906101000a900460ff1615151515815250509050600081600001511161188d576040517f08c379a0000000000000000000000000000000000000000000000000000000008152600401611884906135c6565b60405180910390fd5b60016009600084815260200190815260200160002060040160006101000a81548160ff0219169083151502179055505050565b6000600560008473ffffffffffffffffffffffffffffffffffffffff1673ffffffffffffffffffffffffffffffffffffffff16815260200190815260200160002060008373ffffffffffffffffffffffffffffffffffffffff1673ffffffffffffffffffffffffffffffffffffffff16815260200190815260200160002060009054906101000a900460ff16905092915050565b61195c611bed565b73ffffffffffffffffffffffffffffffffffffffff1661197a610f78565b73ffffffffffffffffffffffffffffffffffffffff16146119d0576040517f08c379a00000000000000000000000000000000000000000000000000000000081526004016119c7906136e6565b60405180910390fd5b600073ffffffffffffffffffffffffffffffffffffffff168173ffffffffffffffffffffffffffffffffffffffff161415611a40576040517f08c379a0000000000000000000000000000000000000000000000000000000008152600401611a3790613566565b60405180910390fd5b611a498161200a565b50565b6009602052806000526040600020600091509050806000015490806001018054611a7590613b79565b80601f0160208091040260200160405190810160405280929190818152602001828054611aa190613b79565b8015611aee5780601f10611ac357610100808354040283529160200191611aee565b820191906000526020600020905b815481529060010190602001808311611ad157829003601f168201915b5050505050908060020154908060030154908060040160009054906101000a900460ff16905085565b60007f01ffc9a7000000000000000000000000000000000000000000000000000000007bffffffffffffffffffffffffffffffffffffffffffffffffffffffff1916827bffffffffffffffffffffffffffffffffffffffffffffffffffffffff1916149050919050565b60008073ffffffffffffffffffffffffffffffffffffffff166002600084815260200190815260200160002060009054906101000a900473ffffffffffffffffffffffffffffffffffffffff1673ffffffffffffffffffffffffffffffffffffffff1614159050919050565b600033905090565b816004600083815260200190815260200160002060006101000a81548173ffffffffffffffffffffffffffffffffffffffff021916908373ffffffffffffffffffffffffffffffffffffffff160217905550808273ffffffffffffffffffffffffffffffffffffffff16611c6883610cf8565b73ffffffffffffffffffffffffffffffffffffffff167f8c5be1e5ebec7d5bd14f71427d1e84f3dd0314c0f7b2291e5b200ac8c7c3b92560405160405180910390a45050565b600082611cbb8584612551565b1490509392505050565b6000611cd082611b81565b611d0f576040517f08c379a0000000000000000000000000000000000000000000000000000000008152600401611d0690613626565b60405180910390fd5b6000611d1a83610cf8565b90508073ffffffffffffffffffffffffffffffffffffffff168473ffffffffffffffffffffffffffffffffffffffff161480611d8957508373ffffffffffffffffffffffffffffffffffffffff16611d71846106c9565b73ffffffffffffffffffffffffffffffffffffffff16145b80611d9a5750611d9981856118c0565b5b91505092915050565b8273ffffffffffffffffffffffffffffffffffffffff16611dc382610cf8565b73ffffffffffffffffffffffffffffffffffffffff1614611e19576040517f08c379a0000000000000000000000000000000000000000000000000000000008152600401611e1090613586565b60405180910390fd5b600073ffffffffffffffffffffffffffffffffffffffff168273ffffffffffffffffffffffffffffffffffffffff161415611e89576040517f08c379a0000000000000000000000000000000000000000000000000000000008152600401611e80906135e6565b60405180910390fd5b611e948383836125ec565b611e9f600082611bf5565b6001600360008573ffffffffffffffffffffffffffffffffffffffff1673ffffffffffffffffffffffffffffffffffffffff1681526020019081526020016000206000828254611eef9190613a85565b925050819055506001600360008473ffffffffffffffffffffffffffffffffffffffff1673ffffffffffffffffffffffffffffffffffffffff1681526020019081526020016000206000828254611f4691906139fe565b92505081905550816002600083815260200190815260200160002060006101000a81548173ffffffffffffffffffffffffffffffffffffffff021916908373ffffffffffffffffffffffffffffffffffffffff160217905550808273ffffffffffffffffffffffffffffffffffffffff168473ffffffffffffffffffffffffffffffffffffffff167fddf252ad1be2c89b69c2b068fc378daa952ba7f163c4a11628f55a4df523b3ef60405160405180910390a46120058383836125f1565b505050565b6000600660009054906101000a900473ffffffffffffffffffffffffffffffffffffffff16905081600660006101000a81548173ffffffffffffffffffffffffffffffffffffffff021916908373ffffffffffffffffffffffffffffffffffffffff1602179055508173ffffffffffffffffffffffffffffffffffffffff168173ffffffffffffffffffffffffffffffffffffffff167f8be0079c531659141344cd1fd0a4f28419497f9722a3daafe3b4186f6b6457e060405160405180910390a35050565b6120da83836125f6565b6120e760008484846127d0565b612126576040517f08c379a000000000000000000000000000000000000000000000000000000000815260040161211d90613546565b60405180910390fd5b505050565b8173ffffffffffffffffffffffffffffffffffffffff168373ffffffffffffffffffffffffffffffffffffffff16141561219a576040517f08c379a000000000000000000000000000000000000000000000000000000000815260040161219190613606565b60405180910390fd5b80600560008573ffffffffffffffffffffffffffffffffffffffff1673ffffffffffffffffffffffffffffffffffffffff16815260200190815260200160002060008473ffffffffffffffffffffffffffffffffffffffff1673ffffffffffffffffffffffffffffffffffffffff16815260200190815260200160002060006101000a81548160ff0219169083151502179055508173ffffffffffffffffffffffffffffffffffffffff168373ffffffffffffffffffffffffffffffffffffffff167f17307eab39ab6107e8899845ad3d59bd9653f200f220920489ca2b5937696c318360405161228b9190613509565b60405180910390a3505050565b6122b28282604051806020016040528060008152506120d0565b5050565b6122c1848484611da3565b6122cd848484846127d0565b61230c576040517f08c379a000000000000000000000000000000000000000000000000000000000815260040161230390613546565b60405180910390fd5b50505050565b60606007805461232190613b79565b80601f016020809104026020016040519081016040528092919081815260200182805461234d90613b79565b801561239a5780601f1061236f5761010080835404028352916020019161239a565b820191906000526020600020905b81548152906001019060200180831161237d57829003601f168201915b5050505050905090565b606060008214156123ec576040518060400160405280600181526020017f3000000000000000000000000000000000000000000000000000000000000000815250905061254c565b600082905060005b6000821461241e57808061240790613bdc565b915050600a826124179190613a54565b91506123f4565b60008167ffffffffffffffff811115612460577f4e487b7100000000000000000000000000000000000000000000000000000000600052604160045260246000fd5b6040519080825280601f01601f1916602001820160405280156124925781602001600182028036833780820191505090505b5090505b60008514612545576001826124ab9190613a85565b9150600a856124ba9190613c53565b60306124c691906139fe565b60f81b818381518110612502577f4e487b7100000000000000000000000000000000000000000000000000000000600052603260045260246000fd5b60200101907effffffffffffffffffffffffffffffffffffffffffffffffffffffffffffff1916908160001a905350600a8561253e9190613a54565b9450612496565b8093505050505b919050565b60008082905060005b84518110156125e157600085828151811061259e577f4e487b7100000000000000000000000000000000000000000000000000000000600052603260045260246000fd5b602002602001015190508083116125c0576125b98382612967565b92506125cd565b6125ca8184612967565b92505b5080806125d990613bdc565b91505061255a565b508091505092915050565b505050565b505050565b600073ffffffffffffffffffffffffffffffffffffffff168273ffffffffffffffffffffffffffffffffffffffff161415612666576040517f08c379a000000000000000000000000000000000000000000000000000000000815260040161265d906136a6565b60405180910390fd5b61266f81611b81565b156126af576040517f08c379a00000000000000000000000000000000000000000000000000000000081526004016126a6906135a6565b60405180910390fd5b6126bb600083836125ec565b6001600360008473ffffffffffffffffffffffffffffffffffffffff1673ffffffffffffffffffffffffffffffffffffffff168152602001908152602001600020600082825461270b91906139fe565b92505081905550816002600083815260200190815260200160002060006101000a81548173ffffffffffffffffffffffffffffffffffffffff021916908373ffffffffffffffffffffffffffffffffffffffff160217905550808273ffffffffffffffffffffffffffffffffffffffff16600073ffffffffffffffffffffffffffffffffffffffff167fddf252ad1be2c89b69c2b068fc378daa952ba7f163c4a11628f55a4df523b3ef60405160405180910390a46127cc600083836125f1565b5050565b60006127f18473ffffffffffffffffffffffffffffffffffffffff1661297e565b1561295a578373ffffffffffffffffffffffffffffffffffffffff1663150b7a0261281a611bed565b8786866040518563ffffffff1660e01b815260040161283c94939291906134bd565b602060405180830381600087803b15801561285657600080fd5b505af192505050801561288757506040513d601f19601f820116820180604052508101906128849190612e20565b60015b61290a573d80600081146128b7576040519150601f19603f3d011682016040523d82523d6000602084013e6128bc565b606091505b50600081511415612902576040517f08c379a00000000000000000000000000000000000000000000000000000000081526004016128f990613546565b60405180910390fd5b805181602001fd5b63150b7a0260e01b7bffffffffffffffffffffffffffffffffffffffffffffffffffffffff1916817bffffffffffffffffffffffffffffffffffffffffffffffffffffffff19161491505061295f565b600190505b949350505050565b600082600052816020526040600020905092915050565b6000808273ffffffffffffffffffffffffffffffffffffffff163b119050919050565b8280546129ad90613b79565b90600052602060002090601f0160209004810192826129cf5760008555612a16565b82601f106129e857805160ff1916838001178555612a16565b82800160010185558215612a16579182015b82811115612a155782518255916020019190600101906129fa565b5b509050612a239190612a4f565b5090565b6040518060800160405280600081526020016000815260200160608152602001600081525090565b5b80821115612a68576000816000905550600101612a50565b5090565b6000612a7f612a7a8461391c565b6138f7565b90508083825260208201905082856020860282011115612a9e57600080fd5b60005b85811015612ace5781612ab48882612ba8565b845260208401935060208301925050600181019050612aa1565b5050509392505050565b6000612aeb612ae684613948565b6138f7565b905082815260208101848484011115612b0357600080fd5b612b0e848285613b37565b509392505050565b6000612b29612b2484613979565b6138f7565b905082815260208101848484011115612b4157600080fd5b612b4c848285613b37565b509392505050565b600081359050612b6381614231565b92915050565b600082601f830112612b7a57600080fd5b8135612b8a848260208601612a6c565b91505092915050565b600081359050612ba281614248565b92915050565b600081359050612bb78161425f565b92915050565b600081359050612bcc81614276565b92915050565b600081519050612be181614276565b92915050565b600082601f830112612bf857600080fd5b8135612c08848260208601612ad8565b91505092915050565b600082601f830112612c2257600080fd5b8135612c32848260208601612b16565b91505092915050565b600081359050612c4a8161428d565b92915050565b600060208284031215612c6257600080fd5b6000612c7084828501612b54565b91505092915050565b60008060408385031215612c8c57600080fd5b6000612c9a85828601612b54565b9250506020612cab85828601612b54565b9150509250929050565b600080600060608486031215612cca57600080fd5b6000612cd886828701612b54565b9350506020612ce986828701612b54565b9250506040612cfa86828701612c3b565b9150509250925092565b60008060008060808587031215612d1a57600080fd5b6000612d2887828801612b54565b9450506020612d3987828801612b54565b9350506040612d4a87828801612c3b565b925050606085013567ffffffffffffffff811115612d6757600080fd5b612d7387828801612be7565b91505092959194509250565b60008060408385031215612d9257600080fd5b6000612da085828601612b54565b9250506020612db185828601612b93565b9150509250929050565b60008060408385031215612dce57600080fd5b6000612ddc85828601612b54565b9250506020612ded85828601612c3b565b9150509250929050565b600060208284031215612e0957600080fd5b6000612e1784828501612bbd565b91505092915050565b600060208284031215612e3257600080fd5b6000612e4084828501612bd2565b91505092915050565b600060208284031215612e5b57600080fd5b600082013567ffffffffffffffff811115612e7557600080fd5b612e8184828501612c11565b91505092915050565b60008060408385031215612e9d57600080fd5b600083013567ffffffffffffffff811115612eb757600080fd5b612ec385828601612c11565b9250506020612ed485828601612ba8565b9150509250929050565b600060208284031215612ef057600080fd5b6000612efe84828501612c3b565b91505092915050565b600080600060608486031215612f1c57600080fd5b6000612f2a86828701612c3b565b9350506020612f3b86828701612c3b565b925050604084013567ffffffffffffffff811115612f5857600080fd5b612f6486828701612b69565b9150509250925092565b60008060008060808587031215612f8457600080fd5b6000612f9287828801612c3b565b9450506020612fa387828801612c3b565b935050604085013567ffffffffffffffff811115612fc057600080fd5b612fcc87828801612b69565b925050606085013567ffffffffffffffff811115612fe957600080fd5b612ff587828801612c11565b91505092959194509250565b61300a81613ab9565b82525050565b61302161301c82613ab9565b613c25565b82525050565b61303081613acb565b82525050565b61303f81613ad7565b82525050565b6000613050826139aa565b61305a81856139c0565b935061306a818560208601613b46565b61307381613d40565b840191505092915050565b6000613089826139b5565b61309381856139d1565b93506130a3818560208601613b46565b6130ac81613d40565b840191505092915050565b60006130c2826139b5565b6130cc81856139e2565b93506130dc818560208601613b46565b6130e581613d40565b840191505092915050565b60006130fb826139b5565b61310581856139f3565b9350613115818560208601613b46565b80840191505092915050565b600061312e6032836139e2565b915061313982613d5e565b604082019050919050565b60006131516026836139e2565b915061315c82613dad565b604082019050919050565b60006131746025836139e2565b915061317f82613dfc565b604082019050919050565b6000613197601c836139e2565b91506131a282613e4b565b602082019050919050565b60006131ba600e836139e2565b91506131c582613e74565b602082019050919050565b60006131dd6024836139e2565b91506131e882613e9d565b604082019050919050565b60006132006019836139e2565b915061320b82613eec565b602082019050919050565b6000613223602c836139e2565b915061322e82613f15565b604082019050919050565b60006132466038836139e2565b915061325182613f64565b604082019050919050565b6000613269602a836139e2565b915061327482613fb3565b604082019050919050565b600061328c6029836139e2565b915061329782614002565b604082019050919050565b60006132af6020836139e2565b91506132ba82614051565b602082019050919050565b60006132d2602c836139e2565b91506132dd8261407a565b604082019050919050565b60006132f56020836139e2565b9150613300826140c9565b602082019050919050565b6000613318602f836139e2565b9150613323826140f2565b604082019050919050565b600061333b6012836139e2565b915061334682614141565b602082019050919050565b600061335e6021836139e2565b91506133698261416a565b604082019050919050565b6000613381600c836139e2565b915061338c826141b9565b602082019050919050565b60006133a46031836139e2565b91506133af826141e2565b604082019050919050565b60006080830160008301516133d2600086018261341d565b5060208301516133e5602086018261341d565b50604083015184820360408601526133fd828261307e565b9150506060830151613412606086018261341d565b508091505092915050565b61342681613b2d565b82525050565b61343581613b2d565b82525050565b61344c61344782613b2d565b613c49565b82525050565b600061345e8285613010565b60148201915061346e828461343b565b6020820191508190509392505050565b600061348a82856130f0565b915061349682846130f0565b91508190509392505050565b60006020820190506134b76000830184613001565b92915050565b60006080820190506134d26000830187613001565b6134df6020830186613001565b6134ec604083018561342c565b81810360608301526134fe8184613045565b905095945050505050565b600060208201905061351e6000830184613027565b92915050565b6000602082019050818103600083015261353e81846130b7565b905092915050565b6000602082019050818103600083015261355f81613121565b9050919050565b6000602082019050818103600083015261357f81613144565b9050919050565b6000602082019050818103600083015261359f81613167565b9050919050565b600060208201905081810360008301526135bf8161318a565b9050919050565b600060208201905081810360008301526135df816131ad565b9050919050565b600060208201905081810360008301526135ff816131d0565b9050919050565b6000602082019050818103600083015261361f816131f3565b9050919050565b6000602082019050818103600083015261363f81613216565b9050919050565b6000602082019050818103600083015261365f81613239565b9050919050565b6000602082019050818103600083015261367f8161325c565b9050919050565b6000602082019050818103600083015261369f8161327f565b9050919050565b600060208201905081810360008301526136bf816132a2565b9050919050565b600060208201905081810360008301526136df816132c5565b9050919050565b600060208201905081810360008301526136ff816132e8565b9050919050565b6000602082019050818103600083015261371f8161330b565b9050919050565b6000602082019050818103600083015261373f8161332e565b9050919050565b6000602082019050818103600083015261375f81613351565b9050919050565b6000602082019050818103600083015261377f81613374565b9050919050565b6000602082019050818103600083015261379f81613397565b9050919050565b600060208201905081810360008301526137c081846133ba565b905092915050565b60006020820190506137dd600083018461342c565b92915050565b60006040820190506137f8600083018561342c565b818103602083015261380a81846130b7565b90509392505050565b6000606082019050613828600083018661342c565b818103602083015261383a81856130b7565b90506138496040830184613036565b949350505050565b600060a082019050613866600083018861342c565b818103602083015261387881876130b7565b90506138876040830186613036565b613894606083018561342c565b6138a16080830184613027565b9695505050505050565b60006080820190506138c0600083018761342c565b6138cd602083018661342c565b81810360408301526138df81856130b7565b90506138ee606083018461342c565b95945050505050565b6000613901613912565b905061390d8282613bab565b919050565b6000604051905090565b600067ffffffffffffffff82111561393757613936613d11565b5b602082029050602081019050919050565b600067ffffffffffffffff82111561396357613962613d11565b5b61396c82613d40565b9050602081019050919050565b600067ffffffffffffffff82111561399457613993613d11565b5b61399d82613d40565b9050602081019050919050565b600081519050919050565b600081519050919050565b600082825260208201905092915050565b600082825260208201905092915050565b600082825260208201905092915050565b600081905092915050565b6000613a0982613b2d565b9150613a1483613b2d565b9250827fffffffffffffffffffffffffffffffffffffffffffffffffffffffffffffffff03821115613a4957613a48613c84565b5b828201905092915050565b6000613a5f82613b2d565b9150613a6a83613b2d565b925082613a7a57613a79613cb3565b5b828204905092915050565b6000613a9082613b2d565b9150613a9b83613b2d565b925082821015613aae57613aad613c84565b5b828203905092915050565b6000613ac482613b0d565b9050919050565b60008115159050919050565b6000819050919050565b60007fffffffff0000000000000000000000000000000000000000000000000000000082169050919050565b600073ffffffffffffffffffffffffffffffffffffffff82169050919050565b6000819050919050565b82818337600083830152505050565b60005b83811015613b64578082015181840152602081019050613b49565b83811115613b73576000848401525b50505050565b60006002820490506001821680613b9157607f821691505b60208210811415613ba557613ba4613ce2565b5b50919050565b613bb482613d40565b810181811067ffffffffffffffff82111715613bd357613bd2613d11565b5b80604052505050565b6000613be782613b2d565b91507fffffffffffffffffffffffffffffffffffffffffffffffffffffffffffffffff821415613c1a57613c19613c84565b5b600182019050919050565b6000613c3082613c37565b9050919050565b6000613c4282613d51565b9050919050565b6000819050919050565b6000613c5e82613b2d565b9150613c6983613b2d565b925082613c7957613c78613cb3565b5b828206905092915050565b7f4e487b7100000000000000000000000000000000000000000000000000000000600052601160045260246000fd5b7f4e487b7100000000000000000000000000000000000000000000000000000000600052601260045260246000fd5b7f4e487b7100000000000000000000000000000000000000000000000000000000600052602260045260246000fd5b7f4e487b7100000000000000000000000000000000000000000000000000000000600052604160045260246000fd5b6000601f19601f8301169050919050565b60008160601b9050919050565b7f4552433732313a207472616e7366657220746f206e6f6e20455243373231526560008201527f63656976657220696d706c656d656e7465720000000000000000000000000000602082015250565b7f4f776e61626c653a206e6577206f776e657220697320746865207a65726f206160008201527f6464726573730000000000000000000000000000000000000000000000000000602082015250565b7f4552433732313a207472616e736665722066726f6d20696e636f72726563742060008201527f6f776e6572000000000000000000000000000000000000000000000000000000602082015250565b7f4552433732313a20746f6b656e20616c7265616479206d696e74656400000000600082015250565b7f44726f70206e6f74206578697374000000000000000000000000000000000000600082015250565b7f4552433732313a207472616e7366657220746f20746865207a65726f2061646460008201527f7265737300000000000000000000000000000000000000000000000000000000602082015250565b7f4552433732313a20617070726f766520746f2063616c6c657200000000000000600082015250565b7f4552433732313a206f70657261746f7220717565727920666f72206e6f6e657860008201527f697374656e7420746f6b656e0000000000000000000000000000000000000000602082015250565b7f4552433732313a20617070726f76652063616c6c6572206973206e6f74206f7760008201527f6e6572206e6f7220617070726f76656420666f7220616c6c0000000000000000602082015250565b7f4552433732313a2062616c616e636520717565727920666f7220746865207a6560008201527f726f206164647265737300000000000000000000000000000000000000000000602082015250565b7f4552433732313a206f776e657220717565727920666f72206e6f6e657869737460008201527f656e7420746f6b656e0000000000000000000000000000000000000000000000602082015250565b7f4552433732313a206d696e7420746f20746865207a65726f2061646472657373600082015250565b7f4552433732313a20617070726f76656420717565727920666f72206e6f6e657860008201527f697374656e7420746f6b656e0000000000000000000000000000000000000000602082015250565b7f4f776e61626c653a2063616c6c6572206973206e6f7420746865206f776e6572600082015250565b7f4552433732314d657461646174613a2055524920717565727920666f72206e6f60008201527f6e6578697374656e7420746f6b656e0000000000000000000000000000000000602082015250565b7f6d65726b6c6520766572696679206661696c0000000000000000000000000000600082015250565b7f4552433732313a20617070726f76616c20746f2063757272656e74206f776e6560008201527f7200000000000000000000000000000000000000000000000000000000000000602082015250565b7f44726f70206973206f7665720000000000000000000000000000000000000000600082015250565b7f4552433732313a207472616e736665722063616c6c6572206973206e6f74206f60008201527f776e6572206e6f7220617070726f766564000000000000000000000000000000602082015250565b61423a81613ab9565b811461424557600080fd5b50565b61425181613acb565b811461425c57600080fd5b50565b61426881613ad7565b811461427357600080fd5b50565b61427f81613ae1565b811461428a57600080fd5b50565b61429681613b2d565b81146142a157600080fd5b5056fea26469706673582212201115504a768c06d8f0eb6b5734cc694fba3ddac40c3a61bb7cc938bcf2af791764736f6c63430008040033",
  "linkReferences": {},
  "deployedLinkReferences": {}
}