{
  "_format": "hh-sol-artifact-1",
  "contractName": "MerkleClaimDropsNFT721",
  "sourceName": "contracts/MerkleClaimDropsNFT721.sol",
  "abi": [
    {
      "inputs": [],
      "stateMutability": "nonpayable",
      "type": "constructor"
    },
    {
      "anonymous": false,
      "inputs": [
        {
          "indexed": true,
          "internalType": "address",
          "name": "owner",
          "type": "address"
        },
        {
          "indexed": true,
          "internalType": "address",
          "name": "approved",
          "type": "address"
        },
        {
          "indexed": true,
          "internalType": "uint256",
          "name": "tokenId",
          "type": "uint256"
        }
      ],
      "name": "Approval",
      "type": "event"
    },
    {
      "anonymous": false,
      "inputs": [
        {
          "indexed": true,
          "internalType": "address",
          "name": "owner",
          "type": "address"
        },
        {
          "indexed": true,
          "internalType": "address",
          "name": "operator",
          "type": "address"
        },
        {
          "indexed": false,
          "internalType": "bool",
          "name": "approved",
          "type": "bool"
        }
      ],
      "name": "ApprovalForAll",
      "type": "event"
    },
    {
      "anonymous": false,
      "inputs": [
        {
          "indexed": false,
          "internalType": "uint256",
          "name": "id",
          "type": "uint256"
        },
        {
          "indexed": false,
          "internalType": "string",
          "name": "info",
          "type": "string"
        },
        {
          "indexed": false,
          "internalType": "bytes32",
          "name": "merkleRoot",
          "type": "bytes32"
        }
      ],
      "name": "CreateDrop",
      "type": "event"
    },
    {
      "anonymous": false,
      "inputs": [
        {
          "indexed": true,
          "internalType": "address",
          "name": "previousOwner",
          "type": "address"
        },
        {
          "indexed": true,
          "internalType": "address",
          "name": "newOwner",
          "type": "address"
        }
      ],
      "name": "OwnershipTransferred",
      "type": "event"
    },
    {
      "anonymous": false,
      "inputs": [
        {
          "indexed": true,
          "internalType": "address",
          "name": "from",
          "type": "address"
        },
        {
          "indexed": true,
          "internalType": "address",
          "name": "to",
          "type": "address"
        },
        {
          "indexed": true,
          "internalType": "uint256",
          "name": "tokenId",
          "type": "uint256"
        }
      ],
      "name": "Transfer",
      "type": "event"
    },
    {
      "inputs": [
        {
          "internalType": "address",
          "name": "to",
          "type": "address"
        },
        {
          "internalType": "uint256",
          "name": "tokenId",
          "type": "uint256"
        }
      ],
      "name": "approve",
      "outputs": [],
      "stateMutability": "nonpayable",
      "type": "function"
    },
    {
      "inputs": [
        {
          "internalType": "address",
          "name": "owner",
          "type": "address"
        }
      ],
      "name": "balanceOf",
      "outputs": [
        {
          "internalType": "uint256",
          "name": "",
          "type": "uint256"
        }
      ],
      "stateMutability": "view",
      "type": "function"
    },
    {
      "inputs": [],
      "name": "baseURI",
      "outputs": [
        {
          "internalType": "string",
          "name": "",
          "type": "string"
        }
      ],
      "stateMutability": "view",
      "type": "function"
    },
    {
      "inputs": [
        {
          "internalType": "uint256",
          "name": "dropId",
          "type": "uint256"
        }
      ],
      "name": "cancelDrop",
      "outputs": [],
      "stateMutability": "nonpayable",
      "type": "function"
    },
    {
      "inputs": [
        {
          "internalType": "uint256",
          "name": "dropId",
          "type": "uint256"
        },
        {
          "internalType": "uint256",
          "name": "tokenId",
          "type": "uint256"
        },
        {
          "internalType": "bytes32[]",
          "name": "proof",
          "type": "bytes32[]"
        }
      ],
      "name": "claim",
      "outputs": [],
      "stateMutability": "nonpayable",
      "type": "function"
    },
    {
      "inputs": [
        {
          "internalType": "string",
          "name": "info",
          "type": "string"
        },
        {
          "internalType": "bytes32",
          "name": "merkleRoot",
          "type": "bytes32"
        }
      ],
      "name": "createDrop",
      "outputs": [],
      "stateMutability": "nonpayable",
      "type": "function"
    },
    {
      "inputs": [],
      "name": "dropslength",
      "outputs": [
        {
          "internalType": "uint256",
          "name": "",
          "type": "uint256"
        }
      ],
      "stateMutability": "view",
      "type": "function"
    },
    {
      "inputs": [
        {
          "internalType": "uint256",
          "name": "tokenId",
          "type": "uint256"
        }
      ],
      "name": "getApproved",
      "outputs": [
        {
          "internalType": "address",
          "name": "",
          "type": "address"
        }
      ],
      "stateMutability": "view",
      "type": "function"
    },
    {
      "inputs": [
        {
          "internalType": "uint256",
          "name": "",
          "type": "uint256"
        }
      ],
      "name": "idToDrop",
      "outputs": [
        {
          "internalType": "uint256",
          "name": "id",
          "type": "uint256"
        },
        {
          "internalType": "string",
          "name": "info",
          "type": "string"
        },
        {
          "internalType": "bytes32",
          "name": "merkleRoot",
          "type": "bytes32"
        },
        {
          "internalType": "uint256",
          "name": "claimCount",
          "type": "uint256"
        },
        {
          "internalType": "bool",
          "name": "isOver",
          "type": "bool"
        }
      ],
      "stateMutability": "view",
      "type": "function"
    },
    {
      "inputs": [
        {
          "internalType": "address",
          "name": "owner",
          "type": "address"
        },
        {
          "internalType": "address",
          "name": "operator",
          "type": "address"
        }
      ],
      "name": "isApprovedForAll",
      "outputs": [
        {
          "internalType": "bool",
          "name": "",
          "type": "bool"
        }
      ],
      "stateMutability": "view",
      "type": "function"
    },
    {
      "inputs": [],
      "name": "name",
      "outputs": [
        {
          "internalType": "string",
          "name": "",
          "type": "string"
        }
      ],
      "stateMutability": "view",
      "type": "function"
    },
    {
      "inputs": [],
      "name": "owner",
      "outputs": [
        {
          "internalType": "address",
          "name": "",
          "type": "address"
        }
      ],
      "stateMutability": "view",
      "type": "function"
    },
    {
      "inputs": [
        {
          "internalType": "uint256",
          "name": "tokenId",
          "type": "uint256"
        }
      ],
      "name": "ownerOf",
      "outputs": [
        {
          "internalType": "address",
          "name": "",
          "type": "address"
        }
      ],
      "stateMutability": "view",
      "type": "function"
    },
    {
      "inputs": [],
      "name": "renounceOwnership",
      "outputs": [],
      "stateMutability": "nonpayable",
      "type": "function"
    },
    {
      "inputs": [
        {
          "internalType": "address",
          "name": "to",
          "type": "address"
        },
        {
          "internalType": "uint256",
          "name": "tokenId",
          "type": "uint256"
        }
      ],
      "name": "safeMint",
      "outputs": [],
      "stateMutability": "nonpayable",
      "type": "function"
    },
    {
      "inputs": [
        {
          "internalType": "address",
          "name": "from",
          "type": "address"
        },
        {
          "internalType": "address",
          "name": "to",
          "type": "address"
        },
        {
          "internalType": "uint256",
          "name": "tokenId",
          "type": "uint256"
        }
      ],
      "name": "safeTransferFrom",
      "outputs": [],
      "stateMutability": "nonpayable",
      "type": "function"
    },
    {
      "inputs": [
        {
          "internalType": "address",
          "name": "from",
          "type": "address"
        },
        {
          "internalType": "address",
          "name": "to",
          "type": "address"
        },
        {
          "internalType": "uint256",
          "name": "tokenId",
          "type": "uint256"
        },
        {
          "internalType": "bytes",
          "name": "_data",
          "type": "bytes"
        }
      ],
      "name": "safeTransferFrom",
      "outputs": [],
      "stateMutability": "nonpayable",
      "type": "function"
    },
    {
      "inputs": [
        {
          "internalType": "address",
          "name": "operator",
          "type": "address"
        },
        {
          "internalType": "bool",
          "name": "approved",
          "type": "bool"
        }
      ],
      "name": "setApprovalForAll",
      "outputs": [],
      "stateMutability": "nonpayable",
      "type": "function"
    },
    {
      "inputs": [
        {
          "internalType": "string",
          "name": "newValue",
          "type": "string"
        }
      ],
      "name": "setBaseURI",
      "outputs": [],
      "stateMutability": "nonpayable",
      "type": "function"
    },
    {
      "inputs": [
        {
          "internalType": "bytes4",
          "name": "interfaceId",
          "type": "bytes4"
        }
      ],
      "name": "supportsInterface",
      "outputs": [
        {
          "internalType": "bool",
          "name": "",
          "type": "bool"
        }
      ],
      "stateMutability": "view",
      "type": "function"
    },
    {
      "inputs": [],
      "name": "symbol",
      "outputs": [
        {
          "internalType": "string",
          "name": "",
          "type": "string"
        }
      ],
      "stateMutability": "view",
      "type": "function"
    },
    {
      "inputs": [
        {
          "internalType": "uint256",
          "name": "tokenId",
          "type": "uint256"
        }
      ],
      "name": "tokenURI",
      "outputs": [
        {
          "internalType": "string",
          "name": "",
          "type": "string"
        }
      ],
      "stateMutability": "view",
      "type": "function"
    },
    {
      "inputs": [
        {
          "internalType": "address",
          "name": "from",
          "type": "address"
        },
        {
          "internalType": "address",
          "name": "to",
          "type": "address"
        },
        {
          "internalType": "uint256",
          "name": "tokenId",
          "type": "uint256"
        }
      ],
      "name": "transferFrom",
      "outputs": [],
      "stateMutability": "nonpayable",
      "type": "function"
    },
    {
      "inputs": [
        {
          "internalType": "address",
          "name": "newOwner",
          "type": "address"
        }
      ],
      "name": "transferOwnership",
      "outputs": [],
      "stateMutability": "nonpayable",
      "type": "function"
    }
  ],
  "bytecode": "0x608060405260006008553480156200001657600080fd5b506040518060400160405280601681526020017f4d65726b6c65436c61696d44726f70734e4654373231000000000000000000008152506040518060400160405280600681526020017f4e4654373231000000000000000000000000000000000000000000000000000081525081600090805190602001906200009b929190620001ab565b508060019080519060200190620000b4929190620001ab565b505050620000d7620000cb620000dd60201b60201c565b620000e560201b60201c565b620002c0565b600033905090565b6000600660009054906101000a900473ffffffffffffffffffffffffffffffffffffffff16905081600660006101000a81548173ffffffffffffffffffffffffffffffffffffffff021916908373ffffffffffffffffffffffffffffffffffffffff1602179055508173ffffffffffffffffffffffffffffffffffffffff168173ffffffffffffffffffffffffffffffffffffffff167f8be0079c531659141344cd1fd0a4f28419497f9722a3daafe3b4186f6b6457e060405160405180910390a35050565b828054620001b9906200025b565b90600052602060002090601f016020900481019282620001dd576000855562000229565b82601f10620001f857805160ff191683800117855562000229565b8280016001018555821562000229579182015b82811115620002285782518255916020019190600101906200020b565b5b5090506200023891906200023c565b5090565b5b80821115620002575760008160009055506001016200023d565b5090565b600060028204905060018216806200027457607f821691505b602082108114156200028b576200028a62000291565b5b50919050565b7f4e487b7100000000000000000000000000000000000000000000000000000000600052602260045260246000fd5b61395580620002d06000396000f3fe608060405234801561001057600080fd5b50600436106101585760003560e01c80638da5cb5b116100c3578063c87b56dd1161007c578063c87b56dd1461039d578063d4551738146103cd578063e2710687146103e9578063e985e9c514610405578063f2fde38b14610435578063f4f694431461045157610158565b80638da5cb5b146102f157806395d89b411461030f578063a14481941461032d578063a22cb46514610349578063ae0b51df14610365578063b88d4fde1461038157610158565b806342842e0e1161011557806342842e0e1461023157806355f804b31461024d5780636352211e146102695780636c0360eb1461029957806370a08231146102b7578063715018a6146102e757610158565b806301ffc9a71461015d57806306fdde031461018d578063081812fc146101ab578063095ea7b3146101db57806323b872dd146101f7578063385b694c14610213575b600080fd5b6101776004803603810190610172919061265f565b610485565b6040516101849190612c33565b60405180910390f35b610195610567565b6040516101a29190612c4e565b60405180910390f35b6101c560048036038101906101c09190612746565b6105f9565b6040516101d29190612bcc565b60405180910390f35b6101f560048036038101906101f09190612623565b61067e565b005b610211600480360381019061020c919061251d565b610796565b005b61021b6107f6565b6040516102289190612ed0565b60405180910390f35b61024b6004803603810190610246919061251d565b6107fc565b005b610267600480360381019061026291906126b1565b61081c565b005b610283600480360381019061027e9190612746565b610836565b6040516102909190612bcc565b60405180910390f35b6102a16108e8565b6040516102ae9190612c4e565b60405180910390f35b6102d160048036038101906102cc91906124b8565b610976565b6040516102de9190612ed0565b60405180910390f35b6102ef610a2e565b005b6102f9610ab6565b6040516103069190612bcc565b60405180910390f35b610317610ae0565b6040516103249190612c4e565b60405180910390f35b61034760048036038101906103429190612623565b610b72565b005b610363600480360381019061035e91906125e7565b610b90565b005b61037f600480360381019061037a919061276f565b610ba6565b005b61039b6004803603810190610396919061256c565b610deb565b005b6103b760048036038101906103b29190612746565b610e4d565b6040516103c49190612c4e565b60405180910390f35b6103e760048036038101906103e291906126f2565b610ef4565b005b61040360048036038101906103fe9190612746565b610fe9565b005b61041f600480360381019061041a91906124e1565b611150565b60405161042c9190612c33565b60405180910390f35b61044f600480360381019061044a91906124b8565b6111e4565b005b61046b60048036038101906104669190612746565b6112dc565b60405161047c959493929190612f29565b60405180910390f35b60007f80ac58cd000000000000000000000000000000000000000000000000000000007bffffffffffffffffffffffffffffffffffffffffffffffffffffffff1916827bffffffffffffffffffffffffffffffffffffffffffffffffffffffff1916148061055057507f5b5e139f000000000000000000000000000000000000000000000000000000007bffffffffffffffffffffffffffffffffffffffffffffffffffffffff1916827bffffffffffffffffffffffffffffffffffffffffffffffffffffffff1916145b80610560575061055f826113a7565b5b9050919050565b606060008054610576906131f4565b80601f01602080910402602001604051908101604052809291908181526020018280546105a2906131f4565b80156105ef5780601f106105c4576101008083540402835291602001916105ef565b820191906000526020600020905b8154815290600101906020018083116105d257829003601f168201915b5050505050905090565b600061060482611411565b610643576040517f08c379a000000000000000000000000000000000000000000000000000000000815260040161063a90612df0565b60405180910390fd5b6004600083815260200190815260200160002060009054906101000a900473ffffffffffffffffffffffffffffffffffffffff169050919050565b600061068982610836565b90508073ffffffffffffffffffffffffffffffffffffffff168373ffffffffffffffffffffffffffffffffffffffff1614156106fa576040517f08c379a00000000000000000000000000000000000000000000000000000000081526004016106f190612e70565b60405180910390fd5b8073ffffffffffffffffffffffffffffffffffffffff1661071961147d565b73ffffffffffffffffffffffffffffffffffffffff16148061074857506107478161074261147d565b611150565b5b610787576040517f08c379a000000000000000000000000000000000000000000000000000000000815260040161077e90612d70565b60405180910390fd5b6107918383611485565b505050565b6107a76107a161147d565b8261153e565b6107e6576040517f08c379a00000000000000000000000000000000000000000000000000000000081526004016107dd90612eb0565b60405180910390fd5b6107f183838361161c565b505050565b60085481565b61081783838360405180602001604052806000815250610deb565b505050565b8060079080519060200190610832929190612231565b5050565b6000806002600084815260200190815260200160002060009054906101000a900473ffffffffffffffffffffffffffffffffffffffff169050600073ffffffffffffffffffffffffffffffffffffffff168173ffffffffffffffffffffffffffffffffffffffff1614156108df576040517f08c379a00000000000000000000000000000000000000000000000000000000081526004016108d690612db0565b60405180910390fd5b80915050919050565b600780546108f5906131f4565b80601f0160208091040260200160405190810160405280929190818152602001828054610921906131f4565b801561096e5780601f106109435761010080835404028352916020019161096e565b820191906000526020600020905b81548152906001019060200180831161095157829003601f168201915b505050505081565b60008073ffffffffffffffffffffffffffffffffffffffff168273ffffffffffffffffffffffffffffffffffffffff1614156109e7576040517f08c379a00000000000000000000000000000000000000000000000000000000081526004016109de90612d90565b60405180910390fd5b600360008373ffffffffffffffffffffffffffffffffffffffff1673ffffffffffffffffffffffffffffffffffffffff168152602001908152602001600020549050919050565b610a3661147d565b73ffffffffffffffffffffffffffffffffffffffff16610a54610ab6565b73ffffffffffffffffffffffffffffffffffffffff1614610aaa576040517f08c379a0000000000000000000000000000000000000000000000000000000008152600401610aa190612e10565b60405180910390fd5b610ab46000611883565b565b6000600660009054906101000a900473ffffffffffffffffffffffffffffffffffffffff16905090565b606060018054610aef906131f4565b80601f0160208091040260200160405190810160405280929190818152602001828054610b1b906131f4565b8015610b685780601f10610b3d57610100808354040283529160200191610b68565b820191906000526020600020905b815481529060010190602001808311610b4b57829003601f168201915b5050505050905090565b610b8c828260405180602001604052806000815250611949565b5050565b610ba2610b9b61147d565b83836119a4565b5050565b6000600960008581526020019081526020016000206040518060a001604052908160008201548152602001600182018054610be0906131f4565b80601f0160208091040260200160405190810160405280929190818152602001828054610c0c906131f4565b8015610c595780601f10610c2e57610100808354040283529160200191610c59565b820191906000526020600020905b815481529060010190602001808311610c3c57829003601f168201915b5050505050815260200160028201548152602001600382015481526020016004820160009054906101000a900460ff16151515158152505090506000816000015111610cda576040517f08c379a0000000000000000000000000000000000000000000000000000000008152600401610cd190612cf0565b60405180910390fd5b806080015115610d1f576040517f08c379a0000000000000000000000000000000000000000000000000000000008152600401610d1690612e90565b60405180910390fd5b6000610d2961147d565b84604051602001610d3b929190612b7c565b6040516020818303038152906040528051906020012090506000610d6484846040015184611b11565b905080610da6576040517f08c379a0000000000000000000000000000000000000000000000000000000008152600401610d9d90612e50565b60405180910390fd5b610db7610db161147d565b86611b28565b600960008781526020019081526020016000206003016000815480929190610dde90613257565b9190505550505050505050565b610dfc610df661147d565b8361153e565b610e3b576040517f08c379a0000000000000000000000000000000000000000000000000000000008152600401610e3290612eb0565b60405180910390fd5b610e4784848484611b46565b50505050565b6060610e5882611411565b610e97576040517f08c379a0000000000000000000000000000000000000000000000000000000008152600401610e8e90612e30565b60405180910390fd5b6000610ea1611ba2565b90506000815111610ec15760405180602001604052806000815250610eec565b80610ecb84611c34565b604051602001610edc929190612ba8565b6040516020818303038152906040525b915050919050565b6000600860008154610f0590613257565b91905081905590506040518060a00160405280828152602001848152602001838152602001600081526020016000151581525060096000838152602001908152602001600020600082015181600001556020820151816001019080519060200190610f71929190612231565b50604082015181600201556060820151816003015560808201518160040160006101000a81548160ff0219169083151502179055509050507fbac989a55da09cc62d952d52605ac894e8b70f48b59302b687302c06d4f490d3818484604051610fdc93929190612eeb565b60405180910390a1505050565b6000600960008381526020019081526020016000206040518060a001604052908160008201548152602001600182018054611023906131f4565b80601f016020809104026020016040519081016040528092919081815260200182805461104f906131f4565b801561109c5780601f106110715761010080835404028352916020019161109c565b820191906000526020600020905b81548152906001019060200180831161107f57829003601f168201915b5050505050815260200160028201548152602001600382015481526020016004820160009054906101000a900460ff1615151515815250509050600081600001511161111d576040517f08c379a000000000000000000000000000000000000000000000000000000000815260040161111490612cf0565b60405180910390fd5b60016009600084815260200190815260200160002060040160006101000a81548160ff0219169083151502179055505050565b6000600560008473ffffffffffffffffffffffffffffffffffffffff1673ffffffffffffffffffffffffffffffffffffffff16815260200190815260200160002060008373ffffffffffffffffffffffffffffffffffffffff1673ffffffffffffffffffffffffffffffffffffffff16815260200190815260200160002060009054906101000a900460ff16905092915050565b6111ec61147d565b73ffffffffffffffffffffffffffffffffffffffff1661120a610ab6565b73ffffffffffffffffffffffffffffffffffffffff1614611260576040517f08c379a000000000000000000000000000000000000000000000000000000000815260040161125790612e10565b60405180910390fd5b600073ffffffffffffffffffffffffffffffffffffffff168173ffffffffffffffffffffffffffffffffffffffff1614156112d0576040517f08c379a00000000000000000000000000000000000000000000000000000000081526004016112c790612c90565b60405180910390fd5b6112d981611883565b50565b6009602052806000526040600020600091509050806000015490806001018054611305906131f4565b80601f0160208091040260200160405190810160405280929190818152602001828054611331906131f4565b801561137e5780601f106113535761010080835404028352916020019161137e565b820191906000526020600020905b81548152906001019060200180831161136157829003601f168201915b5050505050908060020154908060030154908060040160009054906101000a900460ff16905085565b60007f01ffc9a7000000000000000000000000000000000000000000000000000000007bffffffffffffffffffffffffffffffffffffffffffffffffffffffff1916827bffffffffffffffffffffffffffffffffffffffffffffffffffffffff1916149050919050565b60008073ffffffffffffffffffffffffffffffffffffffff166002600084815260200190815260200160002060009054906101000a900473ffffffffffffffffffffffffffffffffffffffff1673ffffffffffffffffffffffffffffffffffffffff1614159050919050565b600033905090565b816004600083815260200190815260200160002060006101000a81548173ffffffffffffffffffffffffffffffffffffffff021916908373ffffffffffffffffffffffffffffffffffffffff160217905550808273ffffffffffffffffffffffffffffffffffffffff166114f883610836565b73ffffffffffffffffffffffffffffffffffffffff167f8c5be1e5ebec7d5bd14f71427d1e84f3dd0314c0f7b2291e5b200ac8c7c3b92560405160405180910390a45050565b600061154982611411565b611588576040517f08c379a000000000000000000000000000000000000000000000000000000000815260040161157f90612d50565b60405180910390fd5b600061159383610836565b90508073ffffffffffffffffffffffffffffffffffffffff168473ffffffffffffffffffffffffffffffffffffffff16148061160257508373ffffffffffffffffffffffffffffffffffffffff166115ea846105f9565b73ffffffffffffffffffffffffffffffffffffffff16145b8061161357506116128185611150565b5b91505092915050565b8273ffffffffffffffffffffffffffffffffffffffff1661163c82610836565b73ffffffffffffffffffffffffffffffffffffffff1614611692576040517f08c379a000000000000000000000000000000000000000000000000000000000815260040161168990612cb0565b60405180910390fd5b600073ffffffffffffffffffffffffffffffffffffffff168273ffffffffffffffffffffffffffffffffffffffff161415611702576040517f08c379a00000000000000000000000000000000000000000000000000000000081526004016116f990612d10565b60405180910390fd5b61170d838383611de1565b611718600082611485565b6001600360008573ffffffffffffffffffffffffffffffffffffffff1673ffffffffffffffffffffffffffffffffffffffff16815260200190815260200160002060008282546117689190613100565b925050819055506001600360008473ffffffffffffffffffffffffffffffffffffffff1673ffffffffffffffffffffffffffffffffffffffff16815260200190815260200160002060008282546117bf9190613079565b92505081905550816002600083815260200190815260200160002060006101000a81548173ffffffffffffffffffffffffffffffffffffffff021916908373ffffffffffffffffffffffffffffffffffffffff160217905550808273ffffffffffffffffffffffffffffffffffffffff168473ffffffffffffffffffffffffffffffffffffffff167fddf252ad1be2c89b69c2b068fc378daa952ba7f163c4a11628f55a4df523b3ef60405160405180910390a461187e838383611de6565b505050565b6000600660009054906101000a900473ffffffffffffffffffffffffffffffffffffffff16905081600660006101000a81548173ffffffffffffffffffffffffffffffffffffffff021916908373ffffffffffffffffffffffffffffffffffffffff1602179055508173ffffffffffffffffffffffffffffffffffffffff168173ffffffffffffffffffffffffffffffffffffffff167f8be0079c531659141344cd1fd0a4f28419497f9722a3daafe3b4186f6b6457e060405160405180910390a35050565b6119538383611deb565b6119606000848484611fc5565b61199f576040517f08c379a000000000000000000000000000000000000000000000000000000000815260040161199690612c70565b60405180910390fd5b505050565b8173ffffffffffffffffffffffffffffffffffffffff168373ffffffffffffffffffffffffffffffffffffffff161415611a13576040517f08c379a0000000000000000000000000000000000000000000000000000000008152600401611a0a90612d30565b60405180910390fd5b80600560008573ffffffffffffffffffffffffffffffffffffffff1673ffffffffffffffffffffffffffffffffffffffff16815260200190815260200160002060008473ffffffffffffffffffffffffffffffffffffffff1673ffffffffffffffffffffffffffffffffffffffff16815260200190815260200160002060006101000a81548160ff0219169083151502179055508173ffffffffffffffffffffffffffffffffffffffff168373ffffffffffffffffffffffffffffffffffffffff167f17307eab39ab6107e8899845ad3d59bd9653f200f220920489ca2b5937696c3183604051611b049190612c33565b60405180910390a3505050565b600082611b1e858461215c565b1490509392505050565b611b42828260405180602001604052806000815250611949565b5050565b611b5184848461161c565b611b5d84848484611fc5565b611b9c576040517f08c379a0000000000000000000000000000000000000000000000000000000008152600401611b9390612c70565b60405180910390fd5b50505050565b606060078054611bb1906131f4565b80601f0160208091040260200160405190810160405280929190818152602001828054611bdd906131f4565b8015611c2a5780601f10611bff57610100808354040283529160200191611c2a565b820191906000526020600020905b815481529060010190602001808311611c0d57829003601f168201915b5050505050905090565b60606000821415611c7c576040518060400160405280600181526020017f30000000000000000000000000000000000000000000000000000000000000008152509050611ddc565b600082905060005b60008214611cae578080611c9790613257565b915050600a82611ca791906130cf565b9150611c84565b60008167ffffffffffffffff811115611cf0577f4e487b7100000000000000000000000000000000000000000000000000000000600052604160045260246000fd5b6040519080825280601f01601f191660200182016040528015611d225781602001600182028036833780820191505090505b5090505b60008514611dd557600182611d3b9190613100565b9150600a85611d4a91906132ce565b6030611d569190613079565b60f81b818381518110611d92577f4e487b7100000000000000000000000000000000000000000000000000000000600052603260045260246000fd5b60200101907effffffffffffffffffffffffffffffffffffffffffffffffffffffffffffff1916908160001a905350600a85611dce91906130cf565b9450611d26565b8093505050505b919050565b505050565b505050565b600073ffffffffffffffffffffffffffffffffffffffff168273ffffffffffffffffffffffffffffffffffffffff161415611e5b576040517f08c379a0000000000000000000000000000000000000000000000000000000008152600401611e5290612dd0565b60405180910390fd5b611e6481611411565b15611ea4576040517f08c379a0000000000000000000000000000000000000000000000000000000008152600401611e9b90612cd0565b60405180910390fd5b611eb060008383611de1565b6001600360008473ffffffffffffffffffffffffffffffffffffffff1673ffffffffffffffffffffffffffffffffffffffff1681526020019081526020016000206000828254611f009190613079565b92505081905550816002600083815260200190815260200160002060006101000a81548173ffffffffffffffffffffffffffffffffffffffff021916908373ffffffffffffffffffffffffffffffffffffffff160217905550808273ffffffffffffffffffffffffffffffffffffffff16600073ffffffffffffffffffffffffffffffffffffffff167fddf252ad1be2c89b69c2b068fc378daa952ba7f163c4a11628f55a4df523b3ef60405160405180910390a4611fc160008383611de6565b5050565b6000611fe68473ffffffffffffffffffffffffffffffffffffffff166121f7565b1561214f578373ffffffffffffffffffffffffffffffffffffffff1663150b7a0261200f61147d565b8786866040518563ffffffff1660e01b81526004016120319493929190612be7565b602060405180830381600087803b15801561204b57600080fd5b505af192505050801561207c57506040513d601f19601f820116820180604052508101906120799190612688565b60015b6120ff573d80600081146120ac576040519150601f19603f3d011682016040523d82523d6000602084013e6120b1565b606091505b506000815114156120f7576040517f08c379a00000000000000000000000000000000000000000000000000000000081526004016120ee90612c70565b60405180910390fd5b805181602001fd5b63150b7a0260e01b7bffffffffffffffffffffffffffffffffffffffffffffffffffffffff1916817bffffffffffffffffffffffffffffffffffffffffffffffffffffffff191614915050612154565b600190505b949350505050565b60008082905060005b84518110156121ec5760008582815181106121a9577f4e487b7100000000000000000000000000000000000000000000000000000000600052603260045260246000fd5b602002602001015190508083116121cb576121c4838261221a565b92506121d8565b6121d5818461221a565b92505b5080806121e490613257565b915050612165565b508091505092915050565b6000808273ffffffffffffffffffffffffffffffffffffffff163b119050919050565b600082600052816020526040600020905092915050565b82805461223d906131f4565b90600052602060002090601f01602090048101928261225f57600085556122a6565b82601f1061227857805160ff19168380011785556122a6565b828001600101855582156122a6579182015b828111156122a557825182559160200191906001019061228a565b5b5090506122b391906122b7565b5090565b5b808211156122d05760008160009055506001016122b8565b5090565b60006122e76122e284612fa8565b612f83565b9050808382526020820190508285602086028201111561230657600080fd5b60005b85811015612336578161231c8882612410565b845260208401935060208301925050600181019050612309565b5050509392505050565b600061235361234e84612fd4565b612f83565b90508281526020810184848401111561236b57600080fd5b6123768482856131b2565b509392505050565b600061239161238c84613005565b612f83565b9050828152602081018484840111156123a957600080fd5b6123b48482856131b2565b509392505050565b6000813590506123cb816138ac565b92915050565b600082601f8301126123e257600080fd5b81356123f28482602086016122d4565b91505092915050565b60008135905061240a816138c3565b92915050565b60008135905061241f816138da565b92915050565b600081359050612434816138f1565b92915050565b600081519050612449816138f1565b92915050565b600082601f83011261246057600080fd5b8135612470848260208601612340565b91505092915050565b600082601f83011261248a57600080fd5b813561249a84826020860161237e565b91505092915050565b6000813590506124b281613908565b92915050565b6000602082840312156124ca57600080fd5b60006124d8848285016123bc565b91505092915050565b600080604083850312156124f457600080fd5b6000612502858286016123bc565b9250506020612513858286016123bc565b9150509250929050565b60008060006060848603121561253257600080fd5b6000612540868287016123bc565b9350506020612551868287016123bc565b9250506040612562868287016124a3565b9150509250925092565b6000806000806080858703121561258257600080fd5b6000612590878288016123bc565b94505060206125a1878288016123bc565b93505060406125b2878288016124a3565b925050606085013567ffffffffffffffff8111156125cf57600080fd5b6125db8782880161244f565b91505092959194509250565b600080604083850312156125fa57600080fd5b6000612608858286016123bc565b9250506020612619858286016123fb565b9150509250929050565b6000806040838503121561263657600080fd5b6000612644858286016123bc565b9250506020612655858286016124a3565b9150509250929050565b60006020828403121561267157600080fd5b600061267f84828501612425565b91505092915050565b60006020828403121561269a57600080fd5b60006126a88482850161243a565b91505092915050565b6000602082840312156126c357600080fd5b600082013567ffffffffffffffff8111156126dd57600080fd5b6126e984828501612479565b91505092915050565b6000806040838503121561270557600080fd5b600083013567ffffffffffffffff81111561271f57600080fd5b61272b85828601612479565b925050602061273c85828601612410565b9150509250929050565b60006020828403121561275857600080fd5b6000612766848285016124a3565b91505092915050565b60008060006060848603121561278457600080fd5b6000612792868287016124a3565b93505060206127a3868287016124a3565b925050604084013567ffffffffffffffff8111156127c057600080fd5b6127cc868287016123d1565b9150509250925092565b6127df81613134565b82525050565b6127f66127f182613134565b6132a0565b82525050565b61280581613146565b82525050565b61281481613152565b82525050565b600061282582613036565b61282f818561304c565b935061283f8185602086016131c1565b612848816133bb565b840191505092915050565b600061285e82613041565b612868818561305d565b93506128788185602086016131c1565b612881816133bb565b840191505092915050565b600061289782613041565b6128a1818561306e565b93506128b18185602086016131c1565b80840191505092915050565b60006128ca60328361305d565b91506128d5826133d9565b604082019050919050565b60006128ed60268361305d565b91506128f882613428565b604082019050919050565b600061291060258361305d565b915061291b82613477565b604082019050919050565b6000612933601c8361305d565b915061293e826134c6565b602082019050919050565b6000612956600e8361305d565b9150612961826134ef565b602082019050919050565b600061297960248361305d565b915061298482613518565b604082019050919050565b600061299c60198361305d565b91506129a782613567565b602082019050919050565b60006129bf602c8361305d565b91506129ca82613590565b604082019050919050565b60006129e260388361305d565b91506129ed826135df565b604082019050919050565b6000612a05602a8361305d565b9150612a108261362e565b604082019050919050565b6000612a2860298361305d565b9150612a338261367d565b604082019050919050565b6000612a4b60208361305d565b9150612a56826136cc565b602082019050919050565b6000612a6e602c8361305d565b9150612a79826136f5565b604082019050919050565b6000612a9160208361305d565b9150612a9c82613744565b602082019050919050565b6000612ab4602f8361305d565b9150612abf8261376d565b604082019050919050565b6000612ad760128361305d565b9150612ae2826137bc565b602082019050919050565b6000612afa60218361305d565b9150612b05826137e5565b604082019050919050565b6000612b1d600c8361305d565b9150612b2882613834565b602082019050919050565b6000612b4060318361305d565b9150612b4b8261385d565b604082019050919050565b612b5f816131a8565b82525050565b612b76612b71826131a8565b6132c4565b82525050565b6000612b8882856127e5565b601482019150612b988284612b65565b6020820191508190509392505050565b6000612bb4828561288c565b9150612bc0828461288c565b91508190509392505050565b6000602082019050612be160008301846127d6565b92915050565b6000608082019050612bfc60008301876127d6565b612c0960208301866127d6565b612c166040830185612b56565b8181036060830152612c28818461281a565b905095945050505050565b6000602082019050612c4860008301846127fc565b92915050565b60006020820190508181036000830152612c688184612853565b905092915050565b60006020820190508181036000830152612c89816128bd565b9050919050565b60006020820190508181036000830152612ca9816128e0565b9050919050565b60006020820190508181036000830152612cc981612903565b9050919050565b60006020820190508181036000830152612ce981612926565b9050919050565b60006020820190508181036000830152612d0981612949565b9050919050565b60006020820190508181036000830152612d298161296c565b9050919050565b60006020820190508181036000830152612d498161298f565b9050919050565b60006020820190508181036000830152612d69816129b2565b9050919050565b60006020820190508181036000830152612d89816129d5565b9050919050565b60006020820190508181036000830152612da9816129f8565b9050919050565b60006020820190508181036000830152612dc981612a1b565b9050919050565b60006020820190508181036000830152612de981612a3e565b9050919050565b60006020820190508181036000830152612e0981612a61565b9050919050565b60006020820190508181036000830152612e2981612a84565b9050919050565b60006020820190508181036000830152612e4981612aa7565b9050919050565b60006020820190508181036000830152612e6981612aca565b9050919050565b60006020820190508181036000830152612e8981612aed565b9050919050565b60006020820190508181036000830152612ea981612b10565b9050919050565b60006020820190508181036000830152612ec981612b33565b9050919050565b6000602082019050612ee56000830184612b56565b92915050565b6000606082019050612f006000830186612b56565b8181036020830152612f128185612853565b9050612f21604083018461280b565b949350505050565b600060a082019050612f3e6000830188612b56565b8181036020830152612f508187612853565b9050612f5f604083018661280b565b612f6c6060830185612b56565b612f7960808301846127fc565b9695505050505050565b6000612f8d612f9e565b9050612f998282613226565b919050565b6000604051905090565b600067ffffffffffffffff821115612fc357612fc261338c565b5b602082029050602081019050919050565b600067ffffffffffffffff821115612fef57612fee61338c565b5b612ff8826133bb565b9050602081019050919050565b600067ffffffffffffffff8211156130205761301f61338c565b5b613029826133bb565b9050602081019050919050565b600081519050919050565b600081519050919050565b600082825260208201905092915050565b600082825260208201905092915050565b600081905092915050565b6000613084826131a8565b915061308f836131a8565b9250827fffffffffffffffffffffffffffffffffffffffffffffffffffffffffffffffff038211156130c4576130c36132ff565b5b828201905092915050565b60006130da826131a8565b91506130e5836131a8565b9250826130f5576130f461332e565b5b828204905092915050565b600061310b826131a8565b9150613116836131a8565b925082821015613129576131286132ff565b5b828203905092915050565b600061313f82613188565b9050919050565b60008115159050919050565b6000819050919050565b60007fffffffff0000000000000000000000000000000000000000000000000000000082169050919050565b600073ffffffffffffffffffffffffffffffffffffffff82169050919050565b6000819050919050565b82818337600083830152505050565b60005b838110156131df5780820151818401526020810190506131c4565b838111156131ee576000848401525b50505050565b6000600282049050600182168061320c57607f821691505b602082108114156132205761321f61335d565b5b50919050565b61322f826133bb565b810181811067ffffffffffffffff8211171561324e5761324d61338c565b5b80604052505050565b6000613262826131a8565b91507fffffffffffffffffffffffffffffffffffffffffffffffffffffffffffffffff821415613295576132946132ff565b5b600182019050919050565b60006132ab826132b2565b9050919050565b60006132bd826133cc565b9050919050565b6000819050919050565b60006132d9826131a8565b91506132e4836131a8565b9250826132f4576132f361332e565b5b828206905092915050565b7f4e487b7100000000000000000000000000000000000000000000000000000000600052601160045260246000fd5b7f4e487b7100000000000000000000000000000000000000000000000000000000600052601260045260246000fd5b7f4e487b7100000000000000000000000000000000000000000000000000000000600052602260045260246000fd5b7f4e487b7100000000000000000000000000000000000000000000000000000000600052604160045260246000fd5b6000601f19601f8301169050919050565b60008160601b9050919050565b7f4552433732313a207472616e7366657220746f206e6f6e20455243373231526560008201527f63656976657220696d706c656d656e7465720000000000000000000000000000602082015250565b7f4f776e61626c653a206e6577206f776e657220697320746865207a65726f206160008201527f6464726573730000000000000000000000000000000000000000000000000000602082015250565b7f4552433732313a207472616e736665722066726f6d20696e636f72726563742060008201527f6f776e6572000000000000000000000000000000000000000000000000000000602082015250565b7f4552433732313a20746f6b656e20616c7265616479206d696e74656400000000600082015250565b7f44726f70206e6f74206578697374000000000000000000000000000000000000600082015250565b7f4552433732313a207472616e7366657220746f20746865207a65726f2061646460008201527f7265737300000000000000000000000000000000000000000000000000000000602082015250565b7f4552433732313a20617070726f766520746f2063616c6c657200000000000000600082015250565b7f4552433732313a206f70657261746f7220717565727920666f72206e6f6e657860008201527f697374656e7420746f6b656e0000000000000000000000000000000000000000602082015250565b7f4552433732313a20617070726f76652063616c6c6572206973206e6f74206f7760008201527f6e6572206e6f7220617070726f76656420666f7220616c6c0000000000000000602082015250565b7f4552433732313a2062616c616e636520717565727920666f7220746865207a6560008201527f726f206164647265737300000000000000000000000000000000000000000000602082015250565b7f4552433732313a206f776e657220717565727920666f72206e6f6e657869737460008201527f656e7420746f6b656e0000000000000000000000000000000000000000000000602082015250565b7f4552433732313a206d696e7420746f20746865207a65726f2061646472657373600082015250565b7f4552433732313a20617070726f76656420717565727920666f72206e6f6e657860008201527f697374656e7420746f6b656e0000000000000000000000000000000000000000602082015250565b7f4f776e61626c653a2063616c6c6572206973206e6f7420746865206f776e6572600082015250565b7f4552433732314d657461646174613a2055524920717565727920666f72206e6f60008201527f6e6578697374656e7420746f6b656e0000000000000000000000000000000000602082015250565b7f6d65726b6c6520766572696679206661696c0000000000000000000000000000600082015250565b7f4552433732313a20617070726f76616c20746f2063757272656e74206f776e6560008201527f7200000000000000000000000000000000000000000000000000000000000000602082015250565b7f44726f70206973206f7665720000000000000000000000000000000000000000600082015250565b7f4552433732313a207472616e736665722063616c6c6572206973206e6f74206f60008201527f776e6572206e6f7220617070726f766564000000000000000000000000000000602082015250565b6138b581613134565b81146138c057600080fd5b50565b6138cc81613146565b81146138d757600080fd5b50565b6138e381613152565b81146138ee57600080fd5b50565b6138fa8161315c565b811461390557600080fd5b50565b613911816131a8565b811461391c57600080fd5b5056fea26469706673582212201edc287c050c32dfa2ffd4ba254f5bea30af6f21905a2cec20179a495a66889764736f6c63430008040033",
  "linkReferences": {},
  "deployedLinkReferences": {}
}