{
  "_format": "hh-sol-artifact-1",
  "contractName": "MerkleClaimTaskNFT721",
  "sourceName": "contracts/MerkleClaimTaskNFT721.sol",
  "abi": [
    {
      "inputs": [],
      "stateMutability": "nonpayable",
      "type": "constructor"
    },
    {
      "anonymous": false,
      "inputs": [
        {
          "indexed": true,
          "internalType": "address",
          "name": "owner",
          "type": "address"
        },
        {
          "indexed": true,
          "internalType": "address",
          "name": "approved",
          "type": "address"
        },
        {
          "indexed": true,
          "internalType": "uint256",
          "name": "tokenId",
          "type": "uint256"
        }
      ],
      "name": "Approval",
      "type": "event"
    },
    {
      "anonymous": false,
      "inputs": [
        {
          "indexed": true,
          "internalType": "address",
          "name": "owner",
          "type": "address"
        },
        {
          "indexed": true,
          "internalType": "address",
          "name": "operator",
          "type": "address"
        },
        {
          "indexed": false,
          "internalType": "bool",
          "name": "approved",
          "type": "bool"
        }
      ],
      "name": "ApprovalForAll",
      "type": "event"
    },
    {
      "anonymous": false,
      "inputs": [
        {
          "indexed": false,
          "internalType": "uint256",
          "name": "id",
          "type": "uint256"
        },
        {
          "indexed": false,
          "internalType": "string",
          "name": "info",
          "type": "string"
        },
        {
          "indexed": false,
          "internalType": "bytes32",
          "name": "merkleRoot",
          "type": "bytes32"
        }
      ],
      "name": "CreateDrop",
      "type": "event"
    },
    {
      "anonymous": false,
      "inputs": [
        {
          "indexed": true,
          "internalType": "address",
          "name": "previousOwner",
          "type": "address"
        },
        {
          "indexed": true,
          "internalType": "address",
          "name": "newOwner",
          "type": "address"
        }
      ],
      "name": "OwnershipTransferred",
      "type": "event"
    },
    {
      "anonymous": false,
      "inputs": [
        {
          "indexed": false,
          "internalType": "uint256",
          "name": "id",
          "type": "uint256"
        },
        {
          "indexed": false,
          "internalType": "string",
          "name": "info",
          "type": "string"
        }
      ],
      "name": "TaskUpgrade",
      "type": "event"
    },
    {
      "anonymous": false,
      "inputs": [
        {
          "indexed": true,
          "internalType": "address",
          "name": "from",
          "type": "address"
        },
        {
          "indexed": true,
          "internalType": "address",
          "name": "to",
          "type": "address"
        },
        {
          "indexed": true,
          "internalType": "uint256",
          "name": "tokenId",
          "type": "uint256"
        }
      ],
      "name": "Transfer",
      "type": "event"
    },
    {
      "inputs": [
        {
          "internalType": "address",
          "name": "to",
          "type": "address"
        },
        {
          "internalType": "uint256",
          "name": "tokenId",
          "type": "uint256"
        }
      ],
      "name": "approve",
      "outputs": [],
      "stateMutability": "nonpayable",
      "type": "function"
    },
    {
      "inputs": [
        {
          "internalType": "address",
          "name": "owner",
          "type": "address"
        }
      ],
      "name": "balanceOf",
      "outputs": [
        {
          "internalType": "uint256",
          "name": "",
          "type": "uint256"
        }
      ],
      "stateMutability": "view",
      "type": "function"
    },
    {
      "inputs": [],
      "name": "baseURI",
      "outputs": [
        {
          "internalType": "string",
          "name": "",
          "type": "string"
        }
      ],
      "stateMutability": "view",
      "type": "function"
    },
    {
      "inputs": [
        {
          "internalType": "uint256",
          "name": "dropId",
          "type": "uint256"
        }
      ],
      "name": "cancelDrop",
      "outputs": [],
      "stateMutability": "nonpayable",
      "type": "function"
    },
    {
      "inputs": [
        {
          "internalType": "uint256",
          "name": "dropId",
          "type": "uint256"
        },
        {
          "internalType": "uint256",
          "name": "tokenId",
          "type": "uint256"
        },
        {
          "internalType": "bytes32[]",
          "name": "proof",
          "type": "bytes32[]"
        }
      ],
      "name": "claim",
      "outputs": [],
      "stateMutability": "nonpayable",
      "type": "function"
    },
    {
      "inputs": [
        {
          "internalType": "string",
          "name": "info",
          "type": "string"
        },
        {
          "internalType": "bytes32",
          "name": "merkleRoot",
          "type": "bytes32"
        }
      ],
      "name": "createDrop",
      "outputs": [],
      "stateMutability": "nonpayable",
      "type": "function"
    },
    {
      "inputs": [],
      "name": "dropslength",
      "outputs": [
        {
          "internalType": "uint256",
          "name": "",
          "type": "uint256"
        }
      ],
      "stateMutability": "view",
      "type": "function"
    },
    {
      "inputs": [
        {
          "internalType": "uint256",
          "name": "tokenId",
          "type": "uint256"
        }
      ],
      "name": "getApproved",
      "outputs": [
        {
          "internalType": "address",
          "name": "",
          "type": "address"
        }
      ],
      "stateMutability": "view",
      "type": "function"
    },
    {
      "inputs": [
        {
          "internalType": "uint256",
          "name": "tokenId",
          "type": "uint256"
        }
      ],
      "name": "getTaskUpgrade",
      "outputs": [
        {
          "components": [
            {
              "internalType": "uint256",
              "name": "tokenId",
              "type": "uint256"
            },
            {
              "internalType": "string",
              "name": "info",
              "type": "string"
            },
            {
              "internalType": "uint256",
              "name": "skills",
              "type": "uint256"
            }
          ],
          "internalType": "struct MerkleClaimTaskNFT721.Task",
          "name": "",
          "type": "tuple"
        }
      ],
      "stateMutability": "view",
      "type": "function"
    },
    {
      "inputs": [
        {
          "internalType": "uint256",
          "name": "",
          "type": "uint256"
        }
      ],
      "name": "idToDrop",
      "outputs": [
        {
          "internalType": "uint256",
          "name": "id",
          "type": "uint256"
        },
        {
          "internalType": "string",
          "name": "info",
          "type": "string"
        },
        {
          "internalType": "bytes32",
          "name": "merkleRoot",
          "type": "bytes32"
        },
        {
          "internalType": "uint256",
          "name": "claimCount",
          "type": "uint256"
        },
        {
          "internalType": "bool",
          "name": "isOver",
          "type": "bool"
        }
      ],
      "stateMutability": "view",
      "type": "function"
    },
    {
      "inputs": [
        {
          "internalType": "address",
          "name": "owner",
          "type": "address"
        },
        {
          "internalType": "address",
          "name": "operator",
          "type": "address"
        }
      ],
      "name": "isApprovedForAll",
      "outputs": [
        {
          "internalType": "bool",
          "name": "",
          "type": "bool"
        }
      ],
      "stateMutability": "view",
      "type": "function"
    },
    {
      "inputs": [],
      "name": "name",
      "outputs": [
        {
          "internalType": "string",
          "name": "",
          "type": "string"
        }
      ],
      "stateMutability": "view",
      "type": "function"
    },
    {
      "inputs": [],
      "name": "owner",
      "outputs": [
        {
          "internalType": "address",
          "name": "",
          "type": "address"
        }
      ],
      "stateMutability": "view",
      "type": "function"
    },
    {
      "inputs": [
        {
          "internalType": "uint256",
          "name": "tokenId",
          "type": "uint256"
        }
      ],
      "name": "ownerOf",
      "outputs": [
        {
          "internalType": "address",
          "name": "",
          "type": "address"
        }
      ],
      "stateMutability": "view",
      "type": "function"
    },
    {
      "inputs": [],
      "name": "renounceOwnership",
      "outputs": [],
      "stateMutability": "nonpayable",
      "type": "function"
    },
    {
      "inputs": [
        {
          "internalType": "address",
          "name": "to",
          "type": "address"
        },
        {
          "internalType": "uint256",
          "name": "tokenId",
          "type": "uint256"
        }
      ],
      "name": "safeMint",
      "outputs": [],
      "stateMutability": "nonpayable",
      "type": "function"
    },
    {
      "inputs": [
        {
          "internalType": "address",
          "name": "from",
          "type": "address"
        },
        {
          "internalType": "address",
          "name": "to",
          "type": "address"
        },
        {
          "internalType": "uint256",
          "name": "tokenId",
          "type": "uint256"
        }
      ],
      "name": "safeTransferFrom",
      "outputs": [],
      "stateMutability": "nonpayable",
      "type": "function"
    },
    {
      "inputs": [
        {
          "internalType": "address",
          "name": "from",
          "type": "address"
        },
        {
          "internalType": "address",
          "name": "to",
          "type": "address"
        },
        {
          "internalType": "uint256",
          "name": "tokenId",
          "type": "uint256"
        },
        {
          "internalType": "bytes",
          "name": "_data",
          "type": "bytes"
        }
      ],
      "name": "safeTransferFrom",
      "outputs": [],
      "stateMutability": "nonpayable",
      "type": "function"
    },
    {
      "inputs": [
        {
          "internalType": "address",
          "name": "operator",
          "type": "address"
        },
        {
          "internalType": "bool",
          "name": "approved",
          "type": "bool"
        }
      ],
      "name": "setApprovalForAll",
      "outputs": [],
      "stateMutability": "nonpayable",
      "type": "function"
    },
    {
      "inputs": [
        {
          "internalType": "string",
          "name": "newValue",
          "type": "string"
        }
      ],
      "name": "setBaseURI",
      "outputs": [],
      "stateMutability": "nonpayable",
      "type": "function"
    },
    {
      "inputs": [
        {
          "internalType": "bytes4",
          "name": "interfaceId",
          "type": "bytes4"
        }
      ],
      "name": "supportsInterface",
      "outputs": [
        {
          "internalType": "bool",
          "name": "",
          "type": "bool"
        }
      ],
      "stateMutability": "view",
      "type": "function"
    },
    {
      "inputs": [],
      "name": "symbol",
      "outputs": [
        {
          "internalType": "string",
          "name": "",
          "type": "string"
        }
      ],
      "stateMutability": "view",
      "type": "function"
    },
    {
      "inputs": [
        {
          "internalType": "uint256",
          "name": "dropId",
          "type": "uint256"
        },
        {
          "internalType": "uint256",
          "name": "tokenId",
          "type": "uint256"
        },
        {
          "internalType": "bytes32[]",
          "name": "proof",
          "type": "bytes32[]"
        },
        {
          "internalType": "string",
          "name": "info",
          "type": "string"
        }
      ],
      "name": "taskUpgrade",
      "outputs": [],
      "stateMutability": "nonpayable",
      "type": "function"
    },
    {
      "inputs": [
        {
          "internalType": "uint256",
          "name": "",
          "type": "uint256"
        }
      ],
      "name": "tokenIdTaskUpgrade",
      "outputs": [
        {
          "internalType": "uint256",
          "name": "tokenId",
          "type": "uint256"
        },
        {
          "internalType": "string",
          "name": "info",
          "type": "string"
        },
        {
          "internalType": "uint256",
          "name": "skills",
          "type": "uint256"
        }
      ],
      "stateMutability": "view",
      "type": "function"
    },
    {
      "inputs": [
        {
          "internalType": "uint256",
          "name": "tokenId",
          "type": "uint256"
        }
      ],
      "name": "tokenURI",
      "outputs": [
        {
          "internalType": "string",
          "name": "",
          "type": "string"
        }
      ],
      "stateMutability": "view",
      "type": "function"
    },
    {
      "inputs": [
        {
          "internalType": "address",
          "name": "from",
          "type": "address"
        },
        {
          "internalType": "address",
          "name": "to",
          "type": "address"
        },
        {
          "internalType": "uint256",
          "name": "tokenId",
          "type": "uint256"
        }
      ],
      "name": "transferFrom",
      "outputs": [],
      "stateMutability": "nonpayable",
      "type": "function"
    },
    {
      "inputs": [
        {
          "internalType": "address",
          "name": "newOwner",
          "type": "address"
        }
      ],
      "name": "transferOwnership",
      "outputs": [],
      "stateMutability": "nonpayable",
      "type": "function"
    }
  ],
  "bytecode": "0x608060405260006008553480156200001657600080fd5b506040518060400160405280601581526020017f4d65726b6c65436c61696d5461736b4e465437323100000000000000000000008152506040518060400160405280600681526020017f4e4654373231000000000000000000000000000000000000000000000000000081525081600090805190602001906200009b929190620001ab565b508060019080519060200190620000b4929190620001ab565b505050620000d7620000cb620000dd60201b60201c565b620000e560201b60201c565b620002c0565b600033905090565b6000600660009054906101000a900473ffffffffffffffffffffffffffffffffffffffff16905081600660006101000a81548173ffffffffffffffffffffffffffffffffffffffff021916908373ffffffffffffffffffffffffffffffffffffffff1602179055508173ffffffffffffffffffffffffffffffffffffffff168173ffffffffffffffffffffffffffffffffffffffff167f8be0079c531659141344cd1fd0a4f28419497f9722a3daafe3b4186f6b6457e060405160405180910390a35050565b828054620001b9906200025b565b90600052602060002090601f016020900481019282620001dd576000855562000229565b82601f10620001f857805160ff191683800117855562000229565b8280016001018555821562000229579182015b82811115620002285782518255916020019190600101906200020b565b5b5090506200023891906200023c565b5090565b5b80821115620002575760008160009055506001016200023d565b5090565b600060028204905060018216806200027457607f821691505b602082108114156200028b576200028a62000291565b5b50919050565b7f4e487b7100000000000000000000000000000000000000000000000000000000600052602260045260246000fd5b61429180620002d06000396000f3fe608060405234801561001057600080fd5b50600436106101a95760003560e01c8063715018a6116100f9578063b88d4fde11610097578063e271068711610071578063e2710687146104b8578063e985e9c5146104d4578063f2fde38b14610504578063f4f6944314610520576101a9565b8063b88d4fde14610450578063c87b56dd1461046c578063d45517381461049c576101a9565b806395d89b41116100d357806395d89b41146103de578063a1448194146103fc578063a22cb46514610418578063ae0b51df14610434576101a9565b8063715018a6146103845780638da5cb5b1461038e5780638e6f78bc146103ac576101a9565b806323b872dd1161016657806355f804b31161014057806355f804b3146102ea5780636352211e146103065780636c0360eb1461033657806370a0823114610354576101a9565b806323b872dd14610294578063385b694c146102b057806342842e0e146102ce576101a9565b806301ffc9a7146101ae57806306fdde03146101de578063081812fc146101fc578063095ea7b31461022c5780630aae997b1461024857806315e9701714610264575b600080fd5b6101c860048036038101906101c39190612dcf565b610554565b6040516101d591906134ce565b60405180910390f35b6101e6610636565b6040516101f391906134e9565b60405180910390f35b61021660048036038101906102119190612eb6565b6106c8565b6040516102239190613467565b60405180910390f35b61024660048036038101906102419190612d93565b61074d565b005b610262600480360381019061025d9190612f46565b610865565b005b61027e60048036038101906102799190612eb6565b610afe565b60405161028b919061376b565b60405180910390f35b6102ae60048036038101906102a99190612c8d565b610bd1565b005b6102b8610c31565b6040516102c5919061378d565b60405180910390f35b6102e860048036038101906102e39190612c8d565b610c37565b005b61030460048036038101906102ff9190612e21565b610c57565b005b610320600480360381019061031b9190612eb6565b610ced565b60405161032d9190613467565b60405180910390f35b61033e610d9f565b60405161034b91906134e9565b60405180910390f35b61036e60048036038101906103699190612c28565b610e2d565b60405161037b919061378d565b60405180910390f35b61038c610ee5565b005b610396610f6d565b6040516103a39190613467565b60405180910390f35b6103c660048036038101906103c19190612eb6565b610f97565b6040516103d593929190613870565b60405180910390f35b6103e6611049565b6040516103f391906134e9565b60405180910390f35b61041660048036038101906104119190612d93565b6110db565b005b610432600480360381019061042d9190612d57565b611175565b005b61044e60048036038101906104499190612edf565b61118b565b005b61046a60048036038101906104659190612cdc565b611442565b005b61048660048036038101906104819190612eb6565b6114a4565b60405161049391906134e9565b60405180910390f35b6104b660048036038101906104b19190612e62565b61154b565b005b6104d260048036038101906104cd9190612eb6565b6116bc565b005b6104ee60048036038101906104e99190612c51565b61189f565b6040516104fb91906134ce565b60405180910390f35b61051e60048036038101906105199190612c28565b611933565b005b61053a60048036038101906105359190612eb6565b611a2b565b60405161054b959493929190613816565b60405180910390f35b60007f80ac58cd000000000000000000000000000000000000000000000000000000007bffffffffffffffffffffffffffffffffffffffffffffffffffffffff1916827bffffffffffffffffffffffffffffffffffffffffffffffffffffffff1916148061061f57507f5b5e139f000000000000000000000000000000000000000000000000000000007bffffffffffffffffffffffffffffffffffffffffffffffffffffffff1916827bffffffffffffffffffffffffffffffffffffffffffffffffffffffff1916145b8061062f575061062e82611af6565b5b9050919050565b60606000805461064590613b30565b80601f016020809104026020016040519081016040528092919081815260200182805461067190613b30565b80156106be5780601f10610693576101008083540402835291602001916106be565b820191906000526020600020905b8154815290600101906020018083116106a157829003601f168201915b5050505050905090565b60006106d382611b60565b610712576040517f08c379a00000000000000000000000000000000000000000000000000000000081526004016107099061368b565b60405180910390fd5b6004600083815260200190815260200160002060009054906101000a900473ffffffffffffffffffffffffffffffffffffffff169050919050565b600061075882610ced565b90508073ffffffffffffffffffffffffffffffffffffffff168373ffffffffffffffffffffffffffffffffffffffff1614156107c9576040517f08c379a00000000000000000000000000000000000000000000000000000000081526004016107c09061370b565b60405180910390fd5b8073ffffffffffffffffffffffffffffffffffffffff166107e8611bcc565b73ffffffffffffffffffffffffffffffffffffffff161480610817575061081681610811611bcc565b61189f565b5b610856576040517f08c379a000000000000000000000000000000000000000000000000000000000815260040161084d9061360b565b60405180910390fd5b6108608383611bd4565b505050565b6000600960008681526020019081526020016000206040518060a00160405290816000820154815260200160018201805461089f90613b30565b80601f01602080910402602001604051908101604052809291908181526020018280546108cb90613b30565b80156109185780601f106108ed57610100808354040283529160200191610918565b820191906000526020600020905b8154815290600101906020018083116108fb57829003601f168201915b5050505050815260200160028201548152602001600382015481526020016004820160009054906101000a900460ff16151515158152505090506000816000015111610999576040517f08c379a00000000000000000000000000000000000000000000000000000000081526004016109909061358b565b60405180910390fd5b8060800151156109de576040517f08c379a00000000000000000000000000000000000000000000000000000000081526004016109d59061372b565b60405180910390fd5b60006109e8611bcc565b856040516020016109fa929190613417565b6040516020818303038152906040528051906020012090506000610a2385846040015184611c8d565b905080610a65576040517f08c379a0000000000000000000000000000000000000000000000000000000008152600401610a5c906136eb565b60405180910390fd5b83600a60008881526020019081526020016000206001019080519060200190610a8f929190612980565b50600a60008781526020019081526020016000206002016000815480929190610ab790613b93565b91905055507f629d6c057930d818e3fc0da2f1ec279849fed2c2b795c2785eb96ff47ce034448685604051610aed9291906137a8565b60405180910390a150505050505050565b610b06612a06565b600a600083815260200190815260200160002060405180606001604052908160008201548152602001600182018054610b3e90613b30565b80601f0160208091040260200160405190810160405280929190818152602001828054610b6a90613b30565b8015610bb75780601f10610b8c57610100808354040283529160200191610bb7565b820191906000526020600020905b815481529060010190602001808311610b9a57829003601f168201915b505050505081526020016002820154815250509050919050565b610be2610bdc611bcc565b82611ca4565b610c21576040517f08c379a0000000000000000000000000000000000000000000000000000000008152600401610c189061374b565b60405180910390fd5b610c2c838383611d82565b505050565b60085481565b610c5283838360405180602001604052806000815250611442565b505050565b610c5f611bcc565b73ffffffffffffffffffffffffffffffffffffffff16610c7d610f6d565b73ffffffffffffffffffffffffffffffffffffffff1614610cd3576040517f08c379a0000000000000000000000000000000000000000000000000000000008152600401610cca906136ab565b60405180910390fd5b8060079080519060200190610ce9929190612980565b5050565b6000806002600084815260200190815260200160002060009054906101000a900473ffffffffffffffffffffffffffffffffffffffff169050600073ffffffffffffffffffffffffffffffffffffffff168173ffffffffffffffffffffffffffffffffffffffff161415610d96576040517f08c379a0000000000000000000000000000000000000000000000000000000008152600401610d8d9061364b565b60405180910390fd5b80915050919050565b60078054610dac90613b30565b80601f0160208091040260200160405190810160405280929190818152602001828054610dd890613b30565b8015610e255780601f10610dfa57610100808354040283529160200191610e25565b820191906000526020600020905b815481529060010190602001808311610e0857829003601f168201915b505050505081565b60008073ffffffffffffffffffffffffffffffffffffffff168273ffffffffffffffffffffffffffffffffffffffff161415610e9e576040517f08c379a0000000000000000000000000000000000000000000000000000000008152600401610e959061362b565b60405180910390fd5b600360008373ffffffffffffffffffffffffffffffffffffffff1673ffffffffffffffffffffffffffffffffffffffff168152602001908152602001600020549050919050565b610eed611bcc565b73ffffffffffffffffffffffffffffffffffffffff16610f0b610f6d565b73ffffffffffffffffffffffffffffffffffffffff1614610f61576040517f08c379a0000000000000000000000000000000000000000000000000000000008152600401610f58906136ab565b60405180910390fd5b610f6b6000611fe9565b565b6000600660009054906101000a900473ffffffffffffffffffffffffffffffffffffffff16905090565b600a602052806000526040600020600091509050806000015490806001018054610fc090613b30565b80601f0160208091040260200160405190810160405280929190818152602001828054610fec90613b30565b80156110395780601f1061100e57610100808354040283529160200191611039565b820191906000526020600020905b81548152906001019060200180831161101c57829003601f168201915b5050505050908060020154905083565b60606001805461105890613b30565b80601f016020809104026020016040519081016040528092919081815260200182805461108490613b30565b80156110d15780601f106110a6576101008083540402835291602001916110d1565b820191906000526020600020905b8154815290600101906020018083116110b457829003601f168201915b5050505050905090565b6110e3611bcc565b73ffffffffffffffffffffffffffffffffffffffff16611101610f6d565b73ffffffffffffffffffffffffffffffffffffffff1614611157576040517f08c379a000000000000000000000000000000000000000000000000000000000815260040161114e906136ab565b60405180910390fd5b6111718282604051806020016040528060008152506120af565b5050565b611187611180611bcc565b838361210a565b5050565b6000600960008581526020019081526020016000206040518060a0016040529081600082015481526020016001820180546111c590613b30565b80601f01602080910402602001604051908101604052809291908181526020018280546111f190613b30565b801561123e5780601f106112135761010080835404028352916020019161123e565b820191906000526020600020905b81548152906001019060200180831161122157829003601f168201915b5050505050815260200160028201548152602001600382015481526020016004820160009054906101000a900460ff161515151581525050905060008160000151116112bf576040517f08c379a00000000000000000000000000000000000000000000000000000000081526004016112b69061358b565b60405180910390fd5b806080015115611304576040517f08c379a00000000000000000000000000000000000000000000000000000000081526004016112fb9061372b565b60405180910390fd5b600061130e611bcc565b84604051602001611320929190613417565b604051602081830303815290604052805190602001209050600061134984846040015184611c8d565b90508061138b576040517f08c379a0000000000000000000000000000000000000000000000000000000008152600401611382906136eb565b60405180910390fd5b61139c611396611bcc565b86612277565b6009600087815260200190815260200160002060030160008154809291906113c390613b93565b919050555060405180606001604052808681526020016040518060200160405280600081525081526020016001815250600a600087815260200190815260200160002060008201518160000155602082015181600101908051906020019061142c929190612980565b5060408201518160020155905050505050505050565b61145361144d611bcc565b83611ca4565b611492576040517f08c379a00000000000000000000000000000000000000000000000000000000081526004016114899061374b565b60405180910390fd5b61149e84848484612295565b50505050565b60606114af82611b60565b6114ee576040517f08c379a00000000000000000000000000000000000000000000000000000000081526004016114e5906136cb565b60405180910390fd5b60006114f86122f1565b905060008151116115185760405180602001604052806000815250611543565b8061152284612383565b604051602001611533929190613443565b6040516020818303038152906040525b915050919050565b611553611bcc565b73ffffffffffffffffffffffffffffffffffffffff16611571610f6d565b73ffffffffffffffffffffffffffffffffffffffff16146115c7576040517f08c379a00000000000000000000000000000000000000000000000000000000081526004016115be906136ab565b60405180910390fd5b60006008600081546115d890613b93565b91905081905590506040518060a00160405280828152602001848152602001838152602001600081526020016000151581525060096000838152602001908152602001600020600082015181600001556020820151816001019080519060200190611644929190612980565b50604082015181600201556060820151816003015560808201518160040160006101000a81548160ff0219169083151502179055509050507fbac989a55da09cc62d952d52605ac894e8b70f48b59302b687302c06d4f490d38184846040516116af939291906137d8565b60405180910390a1505050565b6116c4611bcc565b73ffffffffffffffffffffffffffffffffffffffff166116e2610f6d565b73ffffffffffffffffffffffffffffffffffffffff1614611738576040517f08c379a000000000000000000000000000000000000000000000000000000000815260040161172f906136ab565b60405180910390fd5b6000600960008381526020019081526020016000206040518060a00160405290816000820154815260200160018201805461177290613b30565b80601f016020809104026020016040519081016040528092919081815260200182805461179e90613b30565b80156117eb5780601f106117c0576101008083540402835291602001916117eb565b820191906000526020600020905b8154815290600101906020018083116117ce57829003601f168201915b5050505050815260200160028201548152602001600382015481526020016004820160009054906101000a900460ff1615151515815250509050600081600001511161186c576040517f08c379a00000000000000000000000000000000000000000000000000000000081526004016118639061358b565b60405180910390fd5b60016009600084815260200190815260200160002060040160006101000a81548160ff0219169083151502179055505050565b6000600560008473ffffffffffffffffffffffffffffffffffffffff1673ffffffffffffffffffffffffffffffffffffffff16815260200190815260200160002060008373ffffffffffffffffffffffffffffffffffffffff1673ffffffffffffffffffffffffffffffffffffffff16815260200190815260200160002060009054906101000a900460ff16905092915050565b61193b611bcc565b73ffffffffffffffffffffffffffffffffffffffff16611959610f6d565b73ffffffffffffffffffffffffffffffffffffffff16146119af576040517f08c379a00000000000000000000000000000000000000000000000000000000081526004016119a6906136ab565b60405180910390fd5b600073ffffffffffffffffffffffffffffffffffffffff168173ffffffffffffffffffffffffffffffffffffffff161415611a1f576040517f08c379a0000000000000000000000000000000000000000000000000000000008152600401611a169061352b565b60405180910390fd5b611a2881611fe9565b50565b6009602052806000526040600020600091509050806000015490806001018054611a5490613b30565b80601f0160208091040260200160405190810160405280929190818152602001828054611a8090613b30565b8015611acd5780601f10611aa257610100808354040283529160200191611acd565b820191906000526020600020905b815481529060010190602001808311611ab057829003601f168201915b5050505050908060020154908060030154908060040160009054906101000a900460ff16905085565b60007f01ffc9a7000000000000000000000000000000000000000000000000000000007bffffffffffffffffffffffffffffffffffffffffffffffffffffffff1916827bffffffffffffffffffffffffffffffffffffffffffffffffffffffff1916149050919050565b60008073ffffffffffffffffffffffffffffffffffffffff166002600084815260200190815260200160002060009054906101000a900473ffffffffffffffffffffffffffffffffffffffff1673ffffffffffffffffffffffffffffffffffffffff1614159050919050565b600033905090565b816004600083815260200190815260200160002060006101000a81548173ffffffffffffffffffffffffffffffffffffffff021916908373ffffffffffffffffffffffffffffffffffffffff160217905550808273ffffffffffffffffffffffffffffffffffffffff16611c4783610ced565b73ffffffffffffffffffffffffffffffffffffffff167f8c5be1e5ebec7d5bd14f71427d1e84f3dd0314c0f7b2291e5b200ac8c7c3b92560405160405180910390a45050565b600082611c9a8584612530565b1490509392505050565b6000611caf82611b60565b611cee576040517f08c379a0000000000000000000000000000000000000000000000000000000008152600401611ce5906135eb565b60405180910390fd5b6000611cf983610ced565b90508073ffffffffffffffffffffffffffffffffffffffff168473ffffffffffffffffffffffffffffffffffffffff161480611d6857508373ffffffffffffffffffffffffffffffffffffffff16611d50846106c8565b73ffffffffffffffffffffffffffffffffffffffff16145b80611d795750611d78818561189f565b5b91505092915050565b8273ffffffffffffffffffffffffffffffffffffffff16611da282610ced565b73ffffffffffffffffffffffffffffffffffffffff1614611df8576040517f08c379a0000000000000000000000000000000000000000000000000000000008152600401611def9061354b565b60405180910390fd5b600073ffffffffffffffffffffffffffffffffffffffff168273ffffffffffffffffffffffffffffffffffffffff161415611e68576040517f08c379a0000000000000000000000000000000000000000000000000000000008152600401611e5f906135ab565b60405180910390fd5b611e738383836125cb565b611e7e600082611bd4565b6001600360008573ffffffffffffffffffffffffffffffffffffffff1673ffffffffffffffffffffffffffffffffffffffff1681526020019081526020016000206000828254611ece9190613a3c565b925050819055506001600360008473ffffffffffffffffffffffffffffffffffffffff1673ffffffffffffffffffffffffffffffffffffffff1681526020019081526020016000206000828254611f2591906139b5565b92505081905550816002600083815260200190815260200160002060006101000a81548173ffffffffffffffffffffffffffffffffffffffff021916908373ffffffffffffffffffffffffffffffffffffffff160217905550808273ffffffffffffffffffffffffffffffffffffffff168473ffffffffffffffffffffffffffffffffffffffff167fddf252ad1be2c89b69c2b068fc378daa952ba7f163c4a11628f55a4df523b3ef60405160405180910390a4611fe48383836125d0565b505050565b6000600660009054906101000a900473ffffffffffffffffffffffffffffffffffffffff16905081600660006101000a81548173ffffffffffffffffffffffffffffffffffffffff021916908373ffffffffffffffffffffffffffffffffffffffff1602179055508173ffffffffffffffffffffffffffffffffffffffff168173ffffffffffffffffffffffffffffffffffffffff167f8be0079c531659141344cd1fd0a4f28419497f9722a3daafe3b4186f6b6457e060405160405180910390a35050565b6120b983836125d5565b6120c660008484846127af565b612105576040517f08c379a00000000000000000000000000000000000000000000000000000000081526004016120fc9061350b565b60405180910390fd5b505050565b8173ffffffffffffffffffffffffffffffffffffffff168373ffffffffffffffffffffffffffffffffffffffff161415612179576040517f08c379a0000000000000000000000000000000000000000000000000000000008152600401612170906135cb565b60405180910390fd5b80600560008573ffffffffffffffffffffffffffffffffffffffff1673ffffffffffffffffffffffffffffffffffffffff16815260200190815260200160002060008473ffffffffffffffffffffffffffffffffffffffff1673ffffffffffffffffffffffffffffffffffffffff16815260200190815260200160002060006101000a81548160ff0219169083151502179055508173ffffffffffffffffffffffffffffffffffffffff168373ffffffffffffffffffffffffffffffffffffffff167f17307eab39ab6107e8899845ad3d59bd9653f200f220920489ca2b5937696c318360405161226a91906134ce565b60405180910390a3505050565b6122918282604051806020016040528060008152506120af565b5050565b6122a0848484611d82565b6122ac848484846127af565b6122eb576040517f08c379a00000000000000000000000000000000000000000000000000000000081526004016122e29061350b565b60405180910390fd5b50505050565b60606007805461230090613b30565b80601f016020809104026020016040519081016040528092919081815260200182805461232c90613b30565b80156123795780601f1061234e57610100808354040283529160200191612379565b820191906000526020600020905b81548152906001019060200180831161235c57829003601f168201915b5050505050905090565b606060008214156123cb576040518060400160405280600181526020017f3000000000000000000000000000000000000000000000000000000000000000815250905061252b565b600082905060005b600082146123fd5780806123e690613b93565b915050600a826123f69190613a0b565b91506123d3565b60008167ffffffffffffffff81111561243f577f4e487b7100000000000000000000000000000000000000000000000000000000600052604160045260246000fd5b6040519080825280601f01601f1916602001820160405280156124715781602001600182028036833780820191505090505b5090505b600085146125245760018261248a9190613a3c565b9150600a856124999190613c0a565b60306124a591906139b5565b60f81b8183815181106124e1577f4e487b7100000000000000000000000000000000000000000000000000000000600052603260045260246000fd5b60200101907effffffffffffffffffffffffffffffffffffffffffffffffffffffffffffff1916908160001a905350600a8561251d9190613a0b565b9450612475565b8093505050505b919050565b60008082905060005b84518110156125c057600085828151811061257d577f4e487b7100000000000000000000000000000000000000000000000000000000600052603260045260246000fd5b6020026020010151905080831161259f576125988382612946565b92506125ac565b6125a98184612946565b92505b5080806125b890613b93565b915050612539565b508091505092915050565b505050565b505050565b600073ffffffffffffffffffffffffffffffffffffffff168273ffffffffffffffffffffffffffffffffffffffff161415612645576040517f08c379a000000000000000000000000000000000000000000000000000000000815260040161263c9061366b565b60405180910390fd5b61264e81611b60565b1561268e576040517f08c379a00000000000000000000000000000000000000000000000000000000081526004016126859061356b565b60405180910390fd5b61269a600083836125cb565b6001600360008473ffffffffffffffffffffffffffffffffffffffff1673ffffffffffffffffffffffffffffffffffffffff16815260200190815260200160002060008282546126ea91906139b5565b92505081905550816002600083815260200190815260200160002060006101000a81548173ffffffffffffffffffffffffffffffffffffffff021916908373ffffffffffffffffffffffffffffffffffffffff160217905550808273ffffffffffffffffffffffffffffffffffffffff16600073ffffffffffffffffffffffffffffffffffffffff167fddf252ad1be2c89b69c2b068fc378daa952ba7f163c4a11628f55a4df523b3ef60405160405180910390a46127ab600083836125d0565b5050565b60006127d08473ffffffffffffffffffffffffffffffffffffffff1661295d565b15612939578373ffffffffffffffffffffffffffffffffffffffff1663150b7a026127f9611bcc565b8786866040518563ffffffff1660e01b815260040161281b9493929190613482565b602060405180830381600087803b15801561283557600080fd5b505af192505050801561286657506040513d601f19601f820116820180604052508101906128639190612df8565b60015b6128e9573d8060008114612896576040519150601f19603f3d011682016040523d82523d6000602084013e61289b565b606091505b506000815114156128e1576040517f08c379a00000000000000000000000000000000000000000000000000000000081526004016128d89061350b565b60405180910390fd5b805181602001fd5b63150b7a0260e01b7bffffffffffffffffffffffffffffffffffffffffffffffffffffffff1916817bffffffffffffffffffffffffffffffffffffffffffffffffffffffff19161491505061293e565b600190505b949350505050565b600082600052816020526040600020905092915050565b6000808273ffffffffffffffffffffffffffffffffffffffff163b119050919050565b82805461298c90613b30565b90600052602060002090601f0160209004810192826129ae57600085556129f5565b82601f106129c757805160ff19168380011785556129f5565b828001600101855582156129f5579182015b828111156129f45782518255916020019190600101906129d9565b5b509050612a029190612a27565b5090565b60405180606001604052806000815260200160608152602001600081525090565b5b80821115612a40576000816000905550600101612a28565b5090565b6000612a57612a52846138d3565b6138ae565b90508083825260208201905082856020860282011115612a7657600080fd5b60005b85811015612aa65781612a8c8882612b80565b845260208401935060208301925050600181019050612a79565b5050509392505050565b6000612ac3612abe846138ff565b6138ae565b905082815260208101848484011115612adb57600080fd5b612ae6848285613aee565b509392505050565b6000612b01612afc84613930565b6138ae565b905082815260208101848484011115612b1957600080fd5b612b24848285613aee565b509392505050565b600081359050612b3b816141e8565b92915050565b600082601f830112612b5257600080fd5b8135612b62848260208601612a44565b91505092915050565b600081359050612b7a816141ff565b92915050565b600081359050612b8f81614216565b92915050565b600081359050612ba48161422d565b92915050565b600081519050612bb98161422d565b92915050565b600082601f830112612bd057600080fd5b8135612be0848260208601612ab0565b91505092915050565b600082601f830112612bfa57600080fd5b8135612c0a848260208601612aee565b91505092915050565b600081359050612c2281614244565b92915050565b600060208284031215612c3a57600080fd5b6000612c4884828501612b2c565b91505092915050565b60008060408385031215612c6457600080fd5b6000612c7285828601612b2c565b9250506020612c8385828601612b2c565b9150509250929050565b600080600060608486031215612ca257600080fd5b6000612cb086828701612b2c565b9350506020612cc186828701612b2c565b9250506040612cd286828701612c13565b9150509250925092565b60008060008060808587031215612cf257600080fd5b6000612d0087828801612b2c565b9450506020612d1187828801612b2c565b9350506040612d2287828801612c13565b925050606085013567ffffffffffffffff811115612d3f57600080fd5b612d4b87828801612bbf565b91505092959194509250565b60008060408385031215612d6a57600080fd5b6000612d7885828601612b2c565b9250506020612d8985828601612b6b565b9150509250929050565b60008060408385031215612da657600080fd5b6000612db485828601612b2c565b9250506020612dc585828601612c13565b9150509250929050565b600060208284031215612de157600080fd5b6000612def84828501612b95565b91505092915050565b600060208284031215612e0a57600080fd5b6000612e1884828501612baa565b91505092915050565b600060208284031215612e3357600080fd5b600082013567ffffffffffffffff811115612e4d57600080fd5b612e5984828501612be9565b91505092915050565b60008060408385031215612e7557600080fd5b600083013567ffffffffffffffff811115612e8f57600080fd5b612e9b85828601612be9565b9250506020612eac85828601612b80565b9150509250929050565b600060208284031215612ec857600080fd5b6000612ed684828501612c13565b91505092915050565b600080600060608486031215612ef457600080fd5b6000612f0286828701612c13565b9350506020612f1386828701612c13565b925050604084013567ffffffffffffffff811115612f3057600080fd5b612f3c86828701612b41565b9150509250925092565b60008060008060808587031215612f5c57600080fd5b6000612f6a87828801612c13565b9450506020612f7b87828801612c13565b935050604085013567ffffffffffffffff811115612f9857600080fd5b612fa487828801612b41565b925050606085013567ffffffffffffffff811115612fc157600080fd5b612fcd87828801612be9565b91505092959194509250565b612fe281613a70565b82525050565b612ff9612ff482613a70565b613bdc565b82525050565b61300881613a82565b82525050565b61301781613a8e565b82525050565b600061302882613961565b6130328185613977565b9350613042818560208601613afd565b61304b81613cf7565b840191505092915050565b60006130618261396c565b61306b8185613988565b935061307b818560208601613afd565b61308481613cf7565b840191505092915050565b600061309a8261396c565b6130a48185613999565b93506130b4818560208601613afd565b6130bd81613cf7565b840191505092915050565b60006130d38261396c565b6130dd81856139aa565b93506130ed818560208601613afd565b80840191505092915050565b6000613106603283613999565b915061311182613d15565b604082019050919050565b6000613129602683613999565b915061313482613d64565b604082019050919050565b600061314c602583613999565b915061315782613db3565b604082019050919050565b600061316f601c83613999565b915061317a82613e02565b602082019050919050565b6000613192600e83613999565b915061319d82613e2b565b602082019050919050565b60006131b5602483613999565b91506131c082613e54565b604082019050919050565b60006131d8601983613999565b91506131e382613ea3565b602082019050919050565b60006131fb602c83613999565b915061320682613ecc565b604082019050919050565b600061321e603883613999565b915061322982613f1b565b604082019050919050565b6000613241602a83613999565b915061324c82613f6a565b604082019050919050565b6000613264602983613999565b915061326f82613fb9565b604082019050919050565b6000613287602083613999565b915061329282614008565b602082019050919050565b60006132aa602c83613999565b91506132b582614031565b604082019050919050565b60006132cd602083613999565b91506132d882614080565b602082019050919050565b60006132f0602f83613999565b91506132fb826140a9565b604082019050919050565b6000613313601283613999565b915061331e826140f8565b602082019050919050565b6000613336602183613999565b915061334182614121565b604082019050919050565b6000613359600c83613999565b915061336482614170565b602082019050919050565b600061337c603183613999565b915061338782614199565b604082019050919050565b60006060830160008301516133aa60008601826133e2565b50602083015184820360208601526133c28282613056565b91505060408301516133d760408601826133e2565b508091505092915050565b6133eb81613ae4565b82525050565b6133fa81613ae4565b82525050565b61341161340c82613ae4565b613c00565b82525050565b60006134238285612fe8565b6014820191506134338284613400565b6020820191508190509392505050565b600061344f82856130c8565b915061345b82846130c8565b91508190509392505050565b600060208201905061347c6000830184612fd9565b92915050565b60006080820190506134976000830187612fd9565b6134a46020830186612fd9565b6134b160408301856133f1565b81810360608301526134c3818461301d565b905095945050505050565b60006020820190506134e36000830184612fff565b92915050565b60006020820190508181036000830152613503818461308f565b905092915050565b60006020820190508181036000830152613524816130f9565b9050919050565b600060208201905081810360008301526135448161311c565b9050919050565b600060208201905081810360008301526135648161313f565b9050919050565b6000602082019050818103600083015261358481613162565b9050919050565b600060208201905081810360008301526135a481613185565b9050919050565b600060208201905081810360008301526135c4816131a8565b9050919050565b600060208201905081810360008301526135e4816131cb565b9050919050565b60006020820190508181036000830152613604816131ee565b9050919050565b6000602082019050818103600083015261362481613211565b9050919050565b6000602082019050818103600083015261364481613234565b9050919050565b6000602082019050818103600083015261366481613257565b9050919050565b600060208201905081810360008301526136848161327a565b9050919050565b600060208201905081810360008301526136a48161329d565b9050919050565b600060208201905081810360008301526136c4816132c0565b9050919050565b600060208201905081810360008301526136e4816132e3565b9050919050565b6000602082019050818103600083015261370481613306565b9050919050565b6000602082019050818103600083015261372481613329565b9050919050565b600060208201905081810360008301526137448161334c565b9050919050565b600060208201905081810360008301526137648161336f565b9050919050565b600060208201905081810360008301526137858184613392565b905092915050565b60006020820190506137a260008301846133f1565b92915050565b60006040820190506137bd60008301856133f1565b81810360208301526137cf818461308f565b90509392505050565b60006060820190506137ed60008301866133f1565b81810360208301526137ff818561308f565b905061380e604083018461300e565b949350505050565b600060a08201905061382b60008301886133f1565b818103602083015261383d818761308f565b905061384c604083018661300e565b61385960608301856133f1565b6138666080830184612fff565b9695505050505050565b600060608201905061388560008301866133f1565b8181036020830152613897818561308f565b90506138a660408301846133f1565b949350505050565b60006138b86138c9565b90506138c48282613b62565b919050565b6000604051905090565b600067ffffffffffffffff8211156138ee576138ed613cc8565b5b602082029050602081019050919050565b600067ffffffffffffffff82111561391a57613919613cc8565b5b61392382613cf7565b9050602081019050919050565b600067ffffffffffffffff82111561394b5761394a613cc8565b5b61395482613cf7565b9050602081019050919050565b600081519050919050565b600081519050919050565b600082825260208201905092915050565b600082825260208201905092915050565b600082825260208201905092915050565b600081905092915050565b60006139c082613ae4565b91506139cb83613ae4565b9250827fffffffffffffffffffffffffffffffffffffffffffffffffffffffffffffffff03821115613a00576139ff613c3b565b5b828201905092915050565b6000613a1682613ae4565b9150613a2183613ae4565b925082613a3157613a30613c6a565b5b828204905092915050565b6000613a4782613ae4565b9150613a5283613ae4565b925082821015613a6557613a64613c3b565b5b828203905092915050565b6000613a7b82613ac4565b9050919050565b60008115159050919050565b6000819050919050565b60007fffffffff0000000000000000000000000000000000000000000000000000000082169050919050565b600073ffffffffffffffffffffffffffffffffffffffff82169050919050565b6000819050919050565b82818337600083830152505050565b60005b83811015613b1b578082015181840152602081019050613b00565b83811115613b2a576000848401525b50505050565b60006002820490506001821680613b4857607f821691505b60208210811415613b5c57613b5b613c99565b5b50919050565b613b6b82613cf7565b810181811067ffffffffffffffff82111715613b8a57613b89613cc8565b5b80604052505050565b6000613b9e82613ae4565b91507fffffffffffffffffffffffffffffffffffffffffffffffffffffffffffffffff821415613bd157613bd0613c3b565b5b600182019050919050565b6000613be782613bee565b9050919050565b6000613bf982613d08565b9050919050565b6000819050919050565b6000613c1582613ae4565b9150613c2083613ae4565b925082613c3057613c2f613c6a565b5b828206905092915050565b7f4e487b7100000000000000000000000000000000000000000000000000000000600052601160045260246000fd5b7f4e487b7100000000000000000000000000000000000000000000000000000000600052601260045260246000fd5b7f4e487b7100000000000000000000000000000000000000000000000000000000600052602260045260246000fd5b7f4e487b7100000000000000000000000000000000000000000000000000000000600052604160045260246000fd5b6000601f19601f8301169050919050565b60008160601b9050919050565b7f4552433732313a207472616e7366657220746f206e6f6e20455243373231526560008201527f63656976657220696d706c656d656e7465720000000000000000000000000000602082015250565b7f4f776e61626c653a206e6577206f776e657220697320746865207a65726f206160008201527f6464726573730000000000000000000000000000000000000000000000000000602082015250565b7f4552433732313a207472616e736665722066726f6d20696e636f72726563742060008201527f6f776e6572000000000000000000000000000000000000000000000000000000602082015250565b7f4552433732313a20746f6b656e20616c7265616479206d696e74656400000000600082015250565b7f44726f70206e6f74206578697374000000000000000000000000000000000000600082015250565b7f4552433732313a207472616e7366657220746f20746865207a65726f2061646460008201527f7265737300000000000000000000000000000000000000000000000000000000602082015250565b7f4552433732313a20617070726f766520746f2063616c6c657200000000000000600082015250565b7f4552433732313a206f70657261746f7220717565727920666f72206e6f6e657860008201527f697374656e7420746f6b656e0000000000000000000000000000000000000000602082015250565b7f4552433732313a20617070726f76652063616c6c6572206973206e6f74206f7760008201527f6e6572206e6f7220617070726f76656420666f7220616c6c0000000000000000602082015250565b7f4552433732313a2062616c616e636520717565727920666f7220746865207a6560008201527f726f206164647265737300000000000000000000000000000000000000000000602082015250565b7f4552433732313a206f776e657220717565727920666f72206e6f6e657869737460008201527f656e7420746f6b656e0000000000000000000000000000000000000000000000602082015250565b7f4552433732313a206d696e7420746f20746865207a65726f2061646472657373600082015250565b7f4552433732313a20617070726f76656420717565727920666f72206e6f6e657860008201527f697374656e7420746f6b656e0000000000000000000000000000000000000000602082015250565b7f4f776e61626c653a2063616c6c6572206973206e6f7420746865206f776e6572600082015250565b7f4552433732314d657461646174613a2055524920717565727920666f72206e6f60008201527f6e6578697374656e7420746f6b656e0000000000000000000000000000000000602082015250565b7f6d65726b6c6520766572696679206661696c0000000000000000000000000000600082015250565b7f4552433732313a20617070726f76616c20746f2063757272656e74206f776e6560008201527f7200000000000000000000000000000000000000000000000000000000000000602082015250565b7f44726f70206973206f7665720000000000000000000000000000000000000000600082015250565b7f4552433732313a207472616e736665722063616c6c6572206973206e6f74206f60008201527f776e6572206e6f7220617070726f766564000000000000000000000000000000602082015250565b6141f181613a70565b81146141fc57600080fd5b50565b61420881613a82565b811461421357600080fd5b50565b61421f81613a8e565b811461422a57600080fd5b50565b61423681613a98565b811461424157600080fd5b50565b61424d81613ae4565b811461425857600080fd5b5056fea2646970667358221220c6d2240dc089c1afc80e9dc1e73f6a1ccb24fd6255c6ea72e7cfa8869e222a2c64736f6c63430008040033",
  "linkReferences": {},
  "deployedLinkReferences": {}
}